:100000000C94471B0C94781B0C94781B0C94781B55
:100010000C94781B0C94781B0C94781B0C94781B14
:100020000C94781B0C94781B0C94781B0C94781B04
:100030000C94781B0C94781B0C94781B0C94781BF4
:100040000C94781B0C94B7C10C94781B0C94781BFF
:100050000C94781B0C94781B0C9408800C944A9B8D
:100060000C94781B0C9416420C94781B0C94781BFF
:100070000C94781B0C94781B0C94781B0C94781BB4
:100080000C9434430C94781B0C94781B0C94781BC0
:100090000C94781B0C94781B0C94781B0C94781B94
:1000A0000C94781B0C94781B0C9407430C94781BCD
:1000B0000C94781B0C94781B0C94781B0C9482C9BC
:1000C0000C94781B0C94781B0C94781B0C94781B64
:1000D0000C94781B0C94781B0C94781B0C94781B54
:1000E0000C94781B99999C998B998F999599D39990
:1000F000A099A499AA99AE99B299B899BC99C099B6
:10010000D399C699CA99CE99669A6B9A709A7A9A37
:10011000849AFD9A8E9A969A9E9AA89AB29ABC9AB6
:10012000CB9AD59AFD9ADF9AE99AF39A084AD73B77
:100130003BCE016E84BCBFFDC12F3D6C74319ABDB6
:1001400056833DDA3D00C77F11BED9E4BB4C3E91DA
:100150006BAAAABE000000803F05A84CCDB2D44EC9
:10016000B93836A9020C50B9918688083CA6AAAACB
:100170002ABE000000803F000D943A034E414E49D4
:100180004E495459494E46CDCCCC3D0AD7233C1755
:10019000B7D13877CC2B329595E6241FB14F0A00A2
:1001A0000020410000C84200401C4620BCBE4CCA92
:1001B0001B0E5AAEC59D74434F4D4D554E4943419C
:1001C00054494F4E0044525952554E004552524FD9
:1001D000525300494E464F004543484F00536C650B
:1001E00065702E2E2E004D65736820706F696E74D9
:1001F0002063616E6E6F74206265207265736F6C30
:100200007665640A00436C69636B20746F207265C5
:1002100073756D652E2E2E004E6F206D6F76652ED8
:1002200000286E6F2066696C652900534420707247
:10023000696E74696E67206279746520004E6F7410
:10024000205344207072696E74696E670A004375AA
:100250007272656E742066696C653A200046696C3E
:10026000652064656C657465643A0044656C65740A
:10027000696F6E206661696C65642C2046696C65E7
:100280003A20002569730025696D202569730025D2
:1002900069682025696D202569730025696420251A
:1002A00069682025696D20256973002569792025F5
:1002B0006964202569682025696D202569730050CF
:1002C00072696E742074696D653A2000D801D3019B
:1002D000CC01C501B7016F66660044454255473AF7
:1002E000004B494C4C45442E20004D3131332053B6
:1002F000006F6B0020573A004520436F6F6C696EAA
:10030000672E2E2E00452048656174696E672E2E7B
:100310002E0020573A0042656420636F6F6C696E4F
:10032000672E2E2E004265642068656174696E67D1
:100330002E2E2E00544845524D414C5F50524F5482
:10034000454354494F4E004155544F5245504F522A
:10035000545F53445F53544154555300454D4552E7
:1003600047454E43595F5041525345520043415314
:10037000455F4C494748545F4252494748544E45AF
:10038000535300544F47474C455F4C4947485453DB
:1003900000534F4654574152455F504F5745520006
:1003A0004255494C445F50455243454E54004C45DC
:1003B00056454C494E475F44415441005A5F5052A4
:1003C0004F4245004155544F4C4556454C00505204
:1003D000494E545F4A4F420050524F475245535383
:1003E000004155544F5245504F52545F54454D5063
:1003F00000564F4C554D45545249430045455052C7
:100400004F4D0053455249414C5F584F4E5F584F36
:100410004646004649524D574152455F4E414D4573
:100420003A4D61726C696E20312E312E3920284789
:1004300069746875622920534F555243455F434F95
:1004400044455F55524C3A68747470733A2F2F6765
:1004500069746875622E636F6D2F4D61726C696E81
:100460004669726D776172652F4D61726C696E209D
:1004700050524F544F434F4C5F56455253494F4E85
:100480003A312E30204D414348494E455F54595032
:10049000453A5445564F20546F726E61646F204543
:1004A000585452554445525F434F554E543A3120AB
:1004B000555549443A63656465326132662D34317D
:1004C00061322D343734382D396231322D63353570
:1004D0006336326633363766660A002F2F20007A7D
:1004E0005F6D696E3A2000795F6D696E3A20007821
:1004F0005F6D696E3A20005265706F7274696E6745
:1005000020656E6473746F70207374617475730A00
:10051000004F666673657473206170706C69656402
:10052000004572723A20546F6F2066617221005448
:100530006F6F206661722066726F6D2072656665EE
:1005400072656E636520706F696E740A00205A00D0
:10055000205900580020204D61783A2000205A0090
:10056000205900580020204D696E3A20004F6E201F
:10057000004F666600536F667420656E6473746F17
:1005800070733A200020466C6F773A2000000136E5
:10059000372603FFFFFF353C3D380EFFFFFF312EAE
:1005A000303E12FFFFFFFF28FF0C080907FFFF1A6C
:1005B0001C18FFFF2A08440A0743206F7574206F38
:1005C000662072616E67650A00536572766F20005F
:1005D0003A200020536572766F200020643A002094
:1005E000693A0020703A00496E76616C6964206552
:1005F000787472756465720A0043290A0061626C3E
:10060000656420286D696E2074656D702000436FED
:100610006C642065787472756465732061726520FE
:10062000004B64200023646566696E65204445467E
:1006300041554C545F004B69200023646566696E28
:10064000652044454641554C545F004B70200023C3
:10065000646566696E652044454641554C545F00AB
:10066000504944204175746F74756E652066696EDB
:100670006973686564212050757420746865206C06
:10068000617374204B702C204B6920616E64204B89
:100690006420636F6E7374616E74732066726F6D25
:1006A0002062656C6F7720696E746F20436F6E6691
:1006B000696775726174696F6E2E680A00504944EB
:1006C000204175746F74756E65206661696C656430
:1006D000212074696D656F75740A00453120544896
:1006E00045524D414C2052554E41574159004245CB
:1006F0004420544845524D414C2052554E4157419B
:100700005900546865726D616C2052756E61776135
:10071000790045312048656174696E6720666169BA
:100720006C6564004265642068656174696E672069
:100730006661696C65640048656174696E6720660E
:1007400061696C656400504944204175746F74752B
:100750006E65206661696C6564212054656D706505
:1007600072617475726520746F6F20686967680ABA
:1007700000204B643A2000204B693A2000204B7047
:100780003A20000A20436C61737369632050494426
:10079000200A002054753A2000204B753A20002092
:1007A0006D61783A2000206D696E3A200020643A2D
:1007B000200020626961733A20005049442041754D
:1007C000746F74756E65206661696C656421204282
:1007D0006164206578747275646572206E756D62EF
:1007E00065720A00504944204175746F74756E65D6
:1007F0002073746172740A0020643A0020693A0020
:1008000020703A004E6F2063617365206C696768E1
:10081000740A004F66660A0046616465204865698F
:100820006768742000426564204C6576656C696E6B
:100830006720004661696C656420746F20656E6195
:10084000626C6520426564204C6576656C696E67F4
:100850000A004D65736820706F696E742063616E65
:100860006E6F74206265207265736F6C7665640AC2
:10087000004D34323120696E636F7272656374208B
:10088000706172616D657465722075736167650A68
:1008900000454550524F4D204F4B0A003A20005022
:1008A000726F6265205A204F6666736574003F5A06
:1008B000206F7574206F662072616E676520282D29
:1008C000323020746F203230290A00416374697617
:1008D000652045787472756465723A2000496E76B9
:1008E000616C69642065787472756465720A004E83
:1008F0006F20436865636B73756D2077697468203A
:100900006C696E65206E756D6265722C204C61732A
:1009100074204C696E653A20004B494C4C45442E7E
:10092000200053544F505045442E20005072696EA1
:100930007465722073746F707065642064756520CF
:10094000746F206572726F72732E204669782074FE
:100950006865206572726F7220616E6420757365C0
:10096000204D39393920746F207265737461727447
:100970002E202854656D70657261747572652069EA
:10098000732072657365742E20536574206974201A
:1009900061667465722072657374617274696E67E2
:1009A000290A004E6F20436865636B73756D20776D
:1009B000697468206C696E65206E756D6265722C55
:1009C000204C617374204C696E653A200063686541
:1009D000636B73756D206D69736D617463682C2032
:1009E0004C617374204C696E653A20004C696E65E9
:1009F000204E756D626572206973206E6F74204C95
:100A0000617374204C696E65204E756D6265722B42
:100A1000312C204C617374204C696E653A20004D76
:100A2000313130004D333100534420726561642010
:100A30006572726F720A00446F6E65207072696E23
:100A400074696E672066696C650A0020496E76617C
:100A50006C696420657874727564657220000000AA
:100A6000000000000000000000000000A0430000A3
:100A700096430000C84353544F505045442E200025
:100A80005072696E7465722073746F707065642043
:100A900064756520746F206572726F72732E2046C4
:100AA000697820746865206572726F7220616E6467
:100AB00020757365204D39393920746F2072657344
:100AC000746172742E202854656D7065726174753E
:100AD00072652069732072657365742E2053657486
:100AE0002069742061667465722072657374617226
:100AF00074696E67290A0053544F502063616C6C0F
:100B000065642062656361757365206F6620424C81
:100B1000546F756368206572726F72202D20726544
:100B200073746172742077697468204D3939390A99
:100B30000042696C696E656172204C6576656C690E
:100B40006E6720477269643A0A0020746F6F206CE8
:100B50006F6E6720657874727573696F6E2070723E
:100B60006576656E7465640A0020636F6C64206549
:100B70007874727573696F6E2070726576656E74C5
:100B800065640A0057726974696E6720746F206625
:100B9000696C653A20006F70656E206661696C65EE
:100BA000642C2046696C653A20006F70656E206683
:100BB00061696C65642C2046696C653A2000466961
:100BC0006C652073656C65637465640A0020536905
:100BD0007A653A200046696C65206F70656E6564C1
:100BE0003A20002066696C653A2000646F696E6780
:100BF000006672657368004E6F772000454E442092
:100C0000535542524F5554494E450A002220706FA9
:100C100073002220706172656E743A22005355424F
:100C2000524F5554494E452043414C4C20746172FB
:100C30006765743A22004B494C4C45442E200074A1
:100C40007279696E6720746F2063616C6C207375B4
:100C5000622D67636F64652066696C6573207769D0
:100C6000746820746F6F206D616E79206C65766595
:100C70006C732E204D4158206C6576656C2069732D
:100C80003A004572726F723A0043616E6E6F742063
:100C90006F70656E207375626469722000656368A9
:100CA0006F3A006F70656E206661696C65642C2018
:100CB00046696C653A2000436172642072656D6F0D
:100CC000766564004361726420696E736572746551
:100CD000640000060900FE0701920321207FFF0740
:100CE000FF07FF0000000600000107070602008062
:100CF000808080800080030202060105A0A0050715
:100D0000070600005050F850F8505005070706003D
:100D1000002078A07028F020050707060000C0C852
:100D200010204098180507070600006090A040A812
:100D30009068020303060104C04080030707060110
:100D4000002040808080402003070706010080408B
:100D5000202020408005050506000120A870A8205D
:100D60000505050600012020F820200203030602E5
:100D7000FFC04080050101060003F80202020602DE
:100D800000C0C005050506000108102040800507C9
:100D900007060000708888888888700307070601A6
:100DA0000040C040404040E0050707060000708852
:100DB00008708080F8050707060000F8102010086A
:100DC00008F005070706000010305090F8101005D5
:100DD0000707060000F880F0080888700507070676
:100DE0000000708080F0888870050707060000F812
:100DF0000810202020200507070600007088887052
:100E000088887005070706000070888878080870D1
:100E1000020505060200C0C000C0C00206060602A8
:100E2000FFC0C000C040800407070600001020403B
:100E300080402010050303060002F800F8040707AD
:100E400006010080402010204080050707060000B2
:100E50007088081020002005070706000070880829
:100E600068A8A870050707060000708888F88888B9
:100E700088050707060000F08888F08888F00507D5
:100E800007060000708880808088700507070600CC
:100E900000F08888888888F0050707060000F88039
:100EA00080F08080F8050707060000F88080F08059
:100EB0008080050707060000708880B88888700564
:100EC0000707060000888888F888888801070706D1
:100ED000020080808080808080050707060000383F
:100EE0001010101090600507070600008890A0C041
:100EF000A09088050707060000808080808080F829
:100F000005070706000088D8A8888888880507078D
:100F10000600008888C8A89888880507070600008A
:100F200070888888888870050707060000F0888820
:100F3000F080808005070706000070888888A890E8
:100F400068050707060000F08888F0A0908805076C
:100F500007060000788080700808F0050707060083
:100F600000F82020202020200507070600008888A0
:100F70008888888870050707060000888888888820
:100F800050200507070600008888888888A8500533
:100F90000707060000888850205088880507070644
:100FA000000088888850202020050707060000F8E8
:100FB0000810204080F8030707060100E0808080C9
:100FC0008080E00505050600018040201008030729
:100FD00007060100E02020202020E0050303060092
:100FE00004205088050101060000F80202020602F2
:100FF000058040050505060000700878887805071B
:10100000070600008080B0C88888F0050505060046
:10101000007080808870050707060000080868983F
:101020008888780505050600007088F88070050737
:10103000070600003048E040404040050606060034
:10104000FF7088887808700507070600008080B068
:10105000C888888801070706020080008080808099
:10106000800308080601FF200020202020A0400463
:101070000707060000808090A0C0A0900307070625
:101080000100C04040404040E0050505060000D09A
:10109000A8A8A8A8050505060000B0C88888880586
:1010A000050506000070888888700506060600FFA2
:1010B000F08888F080800506060600FF788888782A
:1010C0000808050505060000B0C8808080050505F4
:1010D00006000070807008F004070706000040401A
:1010E000E040404030050505060000888888986883
:1010F00005050506000088888850200505050600BE
:10110000008888A8A85005050506000088502050D2
:10111000880506060600FF8888887808700505059A
:10112000060000F8102040F80307070601002040E1
:1011300040804040200107070602008080808080B8
:101140008080030707060100804040204040800562
:101150000202060002689000000006000025753AB1
:101160002530327500253032753A2530327500252C
:10117000756420253032753A2530327500202020E4
:10118000202020005A00590020202020005800096B
:1011900020000000000000000000000000003FFFF1
:1011A000F0000000000000000000000000380070A7
:1011B00000000000000000000000000030FC3000D3
:1011C000000000000000000000000020FC100000F3
:1011D0000000000000000000000020781000000067
:1011E000000000000000000000203010000000009F
:1011F00000000000000000002C00D03FC0000000F4
:10120000000000002082002E31D07FE000000000AE
:101210000000001041002F7BD07FE00000000000A4
:1012200000001041002F7BD07FE000000000000094
:10123000002082002E31D03FC000000000000000DE
:101240004104002C00D03FC00000000000000082DC
:1012500008002030107FE00000000000000082083D
:10126000002078107FE00000000000000041040032
:1012700020FC107FE0000000000000002082003011
:10128000FC301F800000000000000000000038005B
:10129000700F0000000000000000FFFFC03FFFF0E3
:1012A000060000000000000000FFFFC0000000007A
:1012B00000000000000000000000003FFFF0000000
:1012C0000000000000000000000038007000000076
:1012D0000000000000000000003186300000000027
:1012E0000000000000000000238710000000000044
:1012F00000000000000000278790000000000000B0
:101300000000000000002F87D00000000000000057
:1013100000000000002F03D03FC0000000000000CC
:10132000002082002030107FE0000000000000005C
:101330001041002078107FE0000000000000001045
:1013400041002078107FE0000000000000002082B3
:10135000002030103FC000000000000000410400E9
:101360002F03D03FC0000000000000008208002FC3
:1013700087D07FE00000000000000082080027877F
:10138000907FE0000000000000004104002387106F
:101390007FE0000000000000002082003186301F46
:1013A00080000000000000000000003800700F0006
:1013B00000000000000000FFFFC03FFFF00600003B
:1013C000000000000000FFFFC00000005445564F21
:1013D00020546F726E61646F2052656164792E00D3
:1013E0005072696E74696E672E2E2E005072696E8F
:1013F00074207061757365640053746F7720424C7C
:10140000546F756368004D323830205030205339A6
:1014100030004465706C6F7920424C546F7563687E
:10142000004D3238302050302053313000424C547F
:101430006F7563682053656C662D54657374004D39
:1014400032383020503020533132300052657365CD
:101450007420424C546F756368004D323830205010
:10146000302053313630004D61696E0000060900AE
:10147000FE000000000001090008FE000005080849
:1014800006000040F0C88888987810050808060013
:1014900000C0F88888888888F805050506000120BE
:1014A00030F830200508080600002070F8202020C1
:1014B00020E00509090600FF2070A8A8B8888870F8
:1014C000200509090600FFE080C0B0A828302828C0
:1014D0000509090600FFF8A88888888888A8F80503
:1014E0000A0A0600FE205050505088A8A8887003B1
:1014F000030306000340A0404732380A4732390A46
:101500004D313137205573657220536372697074A1
:1015100020446F6E65004D313430205337300A4D12
:1015200031303420533231300A4732380A473120C3
:101530005831205931205A302E3220463230303046
:101540002E300A4739322045300A473120583120A1
:1015500059323030204532302046313030302E3054
:101560000A4731205A352046323030300A47393266
:101570002045300A4D313137205573657220536351
:101580007269707420446F6E65004732380A4731C3
:10159000205A302046313030302E300A4D3131372C
:1015A00020557365722053637269707420446F6EA6
:1015B00065004D313430205337300A4732380A47FE
:1015C00032390A4D313137205573657220536372B9
:1015D00069707420446F6E65004D3530330A4D31AB
:1015E00031372055736572205363726970742044DB
:1015F0006F6E650048656174204265642F486F6DA9
:10160000652F424C546F756368204C6576656C009D
:10161000476F746F205A20302068656967687400CE
:10162000496E666F005072696D65204E6F7A7A6CF4
:10163000652F536964652050757267650052756E39
:1016400020424C546F756368204C6576656C696EFA
:1016500067004D61696E005072696E742061626F3F
:1016600072746564005072696E742066726F6D20CA
:1016700053440053746F70207072696E7400526529
:1016800073756D65207072696E74004E6F205344DF
:101690002063617264005061757365207072696EB9
:1016A0007400436F6E74726F6C005072657061727B
:1016B000650054756E6500437573746F6D20436FDC
:1016C0006D6D616E647300496E666F207363726541
:1016D000656E0042616279737465702058004261E2
:1016E0006279737465702059004261627973746520
:1016F00070205A004261627973746570205A00420A
:101700006162797374657020590042616279737403
:101710006570205800466C6F7700466C6F77004606
:10172000616E2073706565640046616E207370653C
:1017300065640042656400426564004E6F7A7A6CAD
:1017400065004E6F7A7A6C65004661646520486575
:1017500069676874004661646520486569676874F4
:10176000005370656564005370656564004D616980
:101770006E004572726F722077726974696E6720AD
:10178000746F20454550524F4D210A004545505237
:101790004F4D206461746173697A65206572726F60
:1017A000722E0A00000020002300260029002C00D1
:1017B0002F003200000100000301060109010505A8
:1017C0000505070508080808020202020A0A0808B7
:1017D00004040404010101010101010103030303E5
:1017E00003030303040707070C0C0C0C0C0C0C0C74
:1017F0000202020206060606060606060B0B0B0B85
:101800000B0B0B0B010210202008081020401020A9
:1018100040800201020108040201010204081020B4
:1018200040808040201008040201800402018040B2
:10183000201008040201080402010102040810201B
:101840004080010204081020408000000A0B0209B9
:101850000C0D0E080703040100000000000000004A
:101860000000000000000000000000000000000078
:101870000000000000001211100000000000000035
:101880000000000000000000000000000000000058
:101890004B494C4C45442E2000202D20496E76614A
:1018A0006C6964206578747275646572206E756DFC
:1018B00062657220210A00000000000000000000A4
:1018C0000000000000000000000000000000000018
:1018D0000000000000000000000000000000000008
:1018E00000000000000000000001FFFF00000000F9
:1018F000000000000000000001FFFFFFFF000000EB
:1019000000000000000000001FFFFFFFFFF00000CC
:101910000000000000000000FFE000FFFFFE0000EC
:101920000000000000000003F00000003FFFC000C6
:1019300000000000000000078000000000FFE00041
:10194000000000000000000E07FC0000000FF00087
:10195000000000000000000CFF0000000001F80083
:10196000000000000000000FE00000000000780010
:10197000000000000000000FC00000000000380060
:101980000000000000000007C000000001E070003F
:101990000000000000000001E0000000007CF000FA
:1019A000000000000000000078000000007FF00050
:1019B00000000000000000010FC0000001FFE00077
:1019C000000000000000000101FF80003FE3E00094
:1019D00000000000000000018007FFFFFC0FC000B6
:1019E0000000000000000001C0000000003F800077
:1019F0000000000000000000E000000001FF000007
:101A00000000000000000000380000002FFC000073
:101A100000000000000000001E000000FFF80000B1
:101A200000000000000000000380000FFE780000AE
:101A300000000000000000000040003E00700000B8
:101A40000000000000000000000000000070000026
:101A500000000000000000000000000000F0000096
:101A600000000000000000000000000001E0000095
:101A700000000000000000000600000007C0000099
:101A80000000000000000000030000001F00000034
:101A9000000000000000000001C00000FC00000089
:101AA00000000000000000000078000FEC000000C3
:101AB0000000000000000000000400100E00000004
:101AC0000000000000000000000000001E000000F8
:101AD0000000000000000000000000007C0000008A
:101AE000000000000000000000000000F000000006
:101AF000000000000000000000000007E0000000FF
:101B000000000000000000000000003F6000000036
:101B10000000000000000000000000006000000065
:101B2000000000000000000000080000E0000000CD
:101B3000000000000400000000070003C0000000D7
:101B400000000001FE0000000003800F8000000084
:101B500000000001FC0000000000C07F0000000049
:101B600000000000F8000000000000C300000800B2
:101B700003000F807C0000000000000701FDFFEF64
:101B8000E7833F867C3F80000000000E07FFFFF7E1
:101B9000EF8FFF1FFC7FC0000000003C1FFFFDFB1C
:101BA000FFDFFF3FFCFFE000000000761FFE7BFB35
:101BB000FFDFFF7FFDFFE000000000061E067BFB4D
:101BC000FFFFFF7FFFE0E0000000001C1C067BF32E
:101BD000F7B81E707B80E000000001F8181E7C033F
:101BE000E7BEFE7FFB81C000000000F01FFE7E010B
:101BF000E7BFFFFFFFFFC000000003F80FFCFF87F7
:101C0000E7BFFFFFFFFFC000000003F007F9FF87F9
:101C1000E79FFFBF7EFF8000000001F003F1E000BE
:101C200027FF1000403F0000000000C0000000003F
:101C300000E00000000000000000000000000000C4
:101C40000000000000000000000000000000000094
:101C50000000000000000000000000000000000084
:101C60000000000000000000000000000000000074
:101C70000000000000000000000000000000000064
:101C80000000000000000000000000000000000054
:101C90000000000000000000000000000000000044
:101CA0000000000000000000000000000000000034
:101CB000000000000000001FFFFFFFFFFFFF6000AB
:101CC00000000001FF400000000000FF8000000055
:101CD00000007F83CF00000C303F87FF80000C3076
:101CE0001F867980000C000F8C30C7838C30E78C06
:101CF00030CFC7CC31F38C30DCECEC33B98C30D83E
:101D00006C6C33198C30D06C0C33198C30D86C0C53
:101D100033198C30DC6C0E3B198C30CF7C079F194B
:101D20008C30C77C038F1940000000000002600067
:101D300000000000061FFFFFFFFFFFF82020506C8F
:101D4000616E6E657242756666657242797465731E
:101D50003A20002046726565204D656D6F72793AB4
:101D60002000436F6D70696C65643A204A756C2081
:101D7000333120323031380A00207C2041757468BC
:101D80006F723A20284E69636B20537465776172D5
:101D9000742C205445564F20544F524E41444F29E5
:101DA0000A00323031382D30372D333100204C616C
:101DB000737420557064617465643A2000312E316B
:101DC0002E390A004D61726C696E0020536F667483
:101DD000776172652052657365740A0020576174DB
:101DE0006368646F672052657365740A00204272ED
:101DF0006F776E206F75742052657365740A0020CA
:101E000045787465726E616C2052657365740A0062
:101E1000506F77657255700A0073746172740A00AE
:101E20006175746F25692E67006572726F72207715
:101E3000726974696E6720746F2066696C650A0048
:101E4000456E6473746F70732025632025632025AD
:101E50006320256300205A3A0020593A0020583A5E
:101E600000656E6473746F7073206869743A200043
:101E7000446F6E6520736176696E672066696C6574
:101E80002E0A004D32390007FFFFFFFFFF0001015E
:101E90000101016265640A002C2073797374656D19
:101EA0002073746F70706564212048656174657279
:101EB0005F49443A20004265642068656174696E38
:101EC00067206661696C65640048656174696E6766
:101ED000206661696C6564004531204865617469FC
:101EE0006E67206661696C65640048656174696E3F
:101EF00067206661696C656400453120544845522D
:101F00004D414C2052554E415741590042454420C5
:101F1000544845524D414C2052554E41574159006D
:101F2000546865726D616C2052756E6177617900DD
:101F30004531204572723A204D415854454D50006C
:101F40004572723A204D415854454D502042454407
:101F5000004D415854454D50207472696767657251
:101F60006564004531204572723A204D494E544512
:101F70004D50004572723A204D494E54454D502007
:101F8000424544004D494E54454D50207472696796
:101F90006765726564004D383420582059205A20F6
:101FA0004500290A002062797465733B20637263DF
:101FB000200053657474696E67732053746F726583
:101FC00064202800290A002062797465733B20632D
:101FD000726320002073746F72656420736574747B
:101FE000696E67732072657472696576656420280E
:101FF00000202863616C63756C6174656429210A33
:102000000020213D2000454550524F4D2043524372
:10201000206D69736D61746368202D202873746F5F
:102020007265642920002053697A653A2000496E60
:102030006465783A2000204D61726C696E3D5635BA
:1020400035290A0028454550524F4D3D0045455021
:10205000524F4D2076657273696F6E206D69736D96
:10206000617463682000416D6178204500416D61B5
:1020700078204500416D6178205A00416D617820DB
:102080005A00416D6178205900416D6178205900F6
:10209000416D6178205800416D6178205800412DD4
:1020A00074726176656C00412D74726176656C00A6
:1020B000412D7265747261637400412D7265747292
:1020C00061637400416363656C00416363656C0028
:1020D0004D6F74696F6E0056652D6A65726B0056A0
:1020E000652D6A65726B0056652D6A65726B0056C8
:1020F0007A2D6A65726B00567A2D6A65726B00568E
:10210000792D6A65726B0056792D6A65726B00567F
:10211000792D6A65726B0056782D6A65726B005670
:10212000782D6A65726B0056782D6A65726B004D6A
:102130006F74696F6E004573746570732F6D6D00F9
:102140004573746570732F6D6D005A737465707389
:102150002F6D6D005A73746570732F6D6D00597318
:10216000746570732F6D6D005973746570732F6D86
:102170006D005873746570732F6D6D0058737465BE
:1021800070732F6D6D004D6F74696F6E00537465C1
:1021900070732F6D6D004A65726B00416363656CEF
:1021A00065726174696F6E0056656C6F63697479EE
:1021B0000050726F6265205A204F66667365740026
:1021C00050726F6265205A204F66667365740043D3
:1021D0006F6E74726F6C0000002100240027002ACB
:1021E000002D003000330001010000040107010A46
:1021F0000100002200250028002B002E00310034B1
:102200000002010000050108010B015072656865BC
:1022100061742041425320636F6E6600507265689E
:1022200065617420504C4120636F6E6600504944D4
:102230002D44005049442D44005049442D4900503C
:1022400049442D49005049442D50005049442D50D7
:1022500000200820466163740020082046616374F2
:10226000002008204D6178002008204D6178002072
:1022700008204D6178002008204D696E002008205C
:102280004D696E002008204D696E004F6666004F54
:102290006E20004175746F74656D700046616E202C
:1022A00073706565640046616E20737065656400D7
:1022B00042656400426564004E6F7A7A6C65004E38
:1022C0006F7A7A6C6500436F6E74726F6C00537432
:1022D0006F72652073657474696E6773004265641C
:1022E00000426564004E6F7A7A6C65004E6F7A7AB0
:1022F0006C650046616E2073706565640046616EB2
:102300002073706565640054656D706572617475E5
:102310007265005654726176206D696E0056547273
:102320006176206D696E005654726176206D696E1B
:1023300000566D696E00566D696E00566D696E00CF
:10234000566D6178204500566D6178204500566DC8
:102350006178204500566D6178205A00566D61788D
:10236000205A00566D6178205A00566D61782059C8
:1023700000566D6178205900566D617820590056DD
:102380006D6178205800566D6178205800566D6157
:10239000782058004D6F74696F6E005072656865E3
:1023A000617420504C4120456E6400507265686530
:1023B000617420504C41204265640050726568652C
:1023C000617420504C41005072657061726500501C
:1023D0007265686561742041425320456E64005007
:1023E0007265686561742041425320426564005003
:1023F0007265686561742041425300507265706176
:102400007265004D343238004D3238302050302063
:102410005331363000424C546F7563682053656CFD
:10242000662D54657374004D32383020503020537F
:10243000313230005072656865617420414253004A
:102440005072656865617420504C4100436F6F6C39
:10245000646F776E00526573657420424C546F75DB
:1024600063680044697361626C65207374657070A1
:10247000657273004D38340053657420686F6D6564
:10248000206F6666736574730046616465204865F5
:1024900069676874004661646520486569676874A7
:1024A000004F6666004F6E2000426564204C6576E2
:1024B000656C696E67004C6576656C2062656400CA
:1024C0004732380A47323900486F6D65205A004755
:1024D0003238205A00486F6D652059004732382045
:1024E0005900486F6D652058004732382058004128
:1024F00075746F20686F6D6500473238004D6F76D8
:10250000652061786973004D61696E004D6F766575
:102510002058004D6F76652059004D6F7665205A22
:1025200000486F6D652058592066697273740A00FF
:10253000486F6D6520585920666972737400507237
:102540006F62696E67206661696C65640A0050722B
:102550006F62696E67206661696C656400205A3A33
:10256000200020593A200042656420583A20004853
:102570006F6D6520257325732573206669727374EA
:10258000002066697273740A005A005900580048A6
:102590006F6D65200053442063617264206F6B0A85
:1025A000006F70656E526F6F74206661696C656450
:1025B0000A00766F6C756D652E696E6974206661B0
:1025C000696C65640A00534420696E697420666111
:1025D000696C0A00205A3A200020593A20004265CE
:1025E0006420583A2000456E642066696C65206C52
:1025F0006973740A00426567696E2066696C6520BC
:102600006C6973740A0050726F746563746564203A
:1026100050696E0A004D31343520533C696E646553
:10262000783E206F7574206F662072616E6765203A
:1026300028302D31290A005445564F20546F726EB0
:1026400061646F204F66662E00205A3A0020593A86
:102650000020436F756E7420583A0020453A0020E0
:102660005A3A0020593A00583A003A004361703A09
:1026700000205400205200416363656C65726174F0
:10268000696F6E3A2050005741524E494E47212003
:102690004C6F77205A204A65726B206D6179206CEF
:1026A00065616420746F20756E77616E7465642057
:1026B0007061757365732E0A006F6B0020746F6F05
:1026C000206C6F6E6720657874727573696F6E2009
:1026D00070726576656E7465640A0020636F6C6461
:1026E00020657874727573696F6E20707265766597
:1026F0006E7465640A00627573793A20706175734F
:10270000656420666F7220696E7075740A00627568
:1027100073793A2070617573656420666F722075F5
:102720007365720A00627573793A2070726F63651F
:102730007373696E670A004B494C4C45442E200068
:102740004B494C4C20636175736564206279204B62
:10275000494C4C20627574746F6E2F70696E0A005C
:102760004B494C4C45442E20004B494C4C20636156
:102770007573656420627920746F6F206D7563686E
:1027800020696E6163746976652074696D65202DBA
:102790002063757272656E7420636F6D6D616E6417
:1027A0003A2000506C656173652072657365740032
:1027B0005052494E5445522048414C5445440050D3
:1027C00072696E7465722068616C7465642E206B2A
:1027D000696C6C28292063616C6C6564210A002493
:1027E000F4D43050C38E20C2A24017828B701112D5
:1027F0007A910D816CD90AA861E108C75866076112
:102800005143061E4B5D05C145A7041A4111040939
:102810003D9803713931034036DB0265339102D4B0
:10282000305402802E1D02632CEE01752AC501B0C2
:1028300028A001102781018F2564012B244B01E082
:10284000223401AC211F018D200D01801FFC00846A
:102850001EED00971DDF00B81CD200E61BC600204D
:102860001BBC00641AB200B219A8000A19A0006AC1
:10287000189900D117910040178B00B516840031CC
:10288000167E00B31579003A157300C7146F00580F
:10289000146A00EE1366008813630025135E00C7F8
:1028A000125B006C12570015125400C111510070D8
:1028B000114F0021114B00D61049008D10470046E2
:1028C00010440002104200C00F4000800F3E004242
:1028D0000F3C00060F3B00CB0E3800930E37005C18
:1028E0000E3500270E3400F30D3200C10D3100907B
:1028F0000D3000600D2E00320D2D00050D2C00D97D
:102900000C2B00AE0C2900850C29005C0C2700352F
:102910000C27000E0C2600E80B2400C40B2400A09A
:102920000B23007D0B23005A0B2100390B210018CB
:102930000B2000F80A1F00D90A1E00BB0A1E009DCA
:102940000A1D00800A1D00630A1C00470A1B002C98
:102950000A1B00110A1A00F7091A00DD091900C440
:10296000091900AB091900920917007B09180063C7
:102970000917004C09160036091600200916000A2E
:10298000091500F5081500E0081400CC081400B87B
:10299000081400A4081400900813007D0812006BAE
:1029A00008130058081200460812003408110023CA
:1029B0000811001208110001081100F0071000E0D2
:1029C000071000D0071000C0071000B0070F00A1CB
:1029D00007100091070E0083070F0074070F0065B2
:1029E000070E0057070E0049070E003B070D002E8B
:1029F000070E0020070D0013070D0006070D00F954
:102A0000060C00ED060D00E0060C00D4060C00C814
:102A1000060C00BC060C00B0060C00A4060B0099C6
:102A2000060C008D060B0082060B0077060B006C6F
:102A3000060B0061060A0057060B004C060A00420E
:102A4000060A0038060A002E060A0024060A001AA2
:102A5000060A001006090007060A00FD050900F431
:102A6000050900EB050900E2050900D9050900D0B8
:102A7000050900C7050900BE050900B5050800AD38
:102A8000050800A50509009C050800940508008CB0
:102A9000050800840508007C050800740508006C22
:102AA000050700650508005D050700560508004E8E
:102AB00005070047050700400508003805070031F5
:102AC0000507002A050700230507001C0506001658
:102AD0000507000F0507000805060002050700FBB3
:102AE000040600F5040700EE040600E8040600E210
:102AF000040700DB040600D5040600CF040600C965
:102B0000040600C3040600BD040600B7040600B1B5
:102B1000040500AC040600A6040600A00405009B02
:102B200004060095040500900406008A040500854B
:102B3000040500800406007A040500750405007091
:102B40000405006B04050066040500610405005CD3
:102B500004050057040500520405004D0405004813
:102B6000040500430405003E0404003A0405003552
:102B7000040500300404002C04050027040400238D
:102B80000405001E0404001A0404001604050011C4
:102B90000404000D040400090405000404040000FA
:102BA000040400FC030400F8030400F4030400F030
:102BB000030400EC030400E8030400E4030400E061
:102BC000030400DC030400D8030400D4030400D091
:102BD000030400CC030400C8030300C5030300245E
:102BE000F404D9201BC40C5C0E9804C4095F026570
:102BF000077101F405F900FB04B30048048700C124
:102C00000369005803550003034500BE023A0084DF
:102C100002310053022A002902250004022000E4A8
:102C2000011C00C8011900AF0117009801140084AD
:102C3000011300710110006101100051010E0043E9
:102C4000010D0036010B002B010B0020010B0015BC
:102C50000109000C01090003010800FB000800F352
:102C6000000800EB000700E4000600DE000600D8C4
:102C7000000600D2000600CC000500C7000500C217
:102C8000000500BD000400B9000400B5000400B157
:102C9000000400AD000400A9000400A5000300A288
:102CA0000003009F0004009B0003009800030095B0
:102CB00000020093000300900003008D0002008BCF
:102CC00000030088000200860002008400030081E7
:102CD0000002007F0002007D0002007B00020079FC
:102CE000000200770001007600020074000200720A
:102CF000000100710002006F0002006D0001006C15
:102D00000002006A0001006900020067000100661D
:102D10000001006500010064000200620001006122
:102D2000000100600001005F0002005D0001005C26
:102D30000001005B0001005A000100590001005829
:102D40000001005700010056000100550001005429
:102D50000001005300000053000100520001005127
:102D6000000100500001004F0001004E0000004E25
:102D70000001004D0001004C0001004B0000004B21
:102D80000001004A0001004900010048000000481D
:102D90000001004700010046000000460001004518
:102DA0000000004500010044000100430000004312
:102DB000000100420000004200010041000000410B
:102DC000000100400001003F0000003F0001003E04
:102DD0000000003E0001003D0000003D0001003CFD
:102DE0000000003C0000003C0001003B0000003BF4
:102DF0000001003A0000003A0001003900000039EB
:102E000000010038000000380000003800010037E1
:102E100000000037000100360000003600000036D8
:102E200000010035000000350000003500010034CD
:102E300000000034000000340001003300000033C3
:102E400000000033000100320000003200000032B8
:102E500000010031000000310000003100010030AD
:102E600000000030000000300001002F0000002FA3
:102E70000000002F0000002F0001002E0000002E97
:102E80000000002E0001002D0000002D0000002D8C
:102E90000000002D0001002C0000002C0000002C80
:102EA0000000002C0001002B0000002B0000002B74
:102EB0000000002B0001002A0000002A0000002A68
:102EC0000000002A0001002900000029000000295C
:102ED000000000290000002900010028000000284F
:102EE0000000002800000028000000280001002742
:102EF0000000002700000027000000270000002736
:102F00000001002600000026000000260000002628
:102F1000000000260001002500000025000000251B
:102F2000000000250000002500000025000100240D
:102F30000000002400000024000000240000002401
:102F400000010023000000230000002300000023F4
:102F500000000023000000230000002300010022E5
:102F600000000022000000220000002200000022D9
:102F700000000022000100210000002100000021CB
:102F800000000021000000210000002100000021BD
:102F900000010020000000200000002000000020B0
:102FA00000000020000000200000002000000020A1
:102FB0000001001F0000001F0000001F0000001F94
:102FC0000000001F0000001F0000001F0001001E85
:102FD0000000001E0000001E0000001E0000000493
:102FE0003700001E290000511B000058100000107F
:102FF000090000CC040000780200004101000048F4
:103000006F6D696E67206661696C65640047322F79
:1030100047332062616420706172616D657465720E
:10302000730A00202844525952554E29004732391C
:10303000204175746F20426564204C6576656C692B
:103040006E67003F20284C2C522C462C4229206FC2
:103050007574206F6620626F756E64732E0A003F70
:103060002856296572626F7365206C6576656C20E1
:10307000697320696D706C61757369626C65202875
:10308000302D34292E0A00426164205A2076616C6A
:1030900075650A004E6F2062696C696E6561722009
:1030A000677269640A00656E7175657565696E673A
:1030B00020220000000000000000000000000000CE
:1030C0000070420000704200000041000000005704
:1030D00061726E696E673A20486F6D696E67204253
:1030E000756D702044697669736F72203C20310AD7
:1030F000000202040000A0400000A04000000040C8
:103100000000A043000096430000C843FFFFFF7C7F
:103110003C3E5E2B3D3F2F5B5D3B2C2A225C0046F4
:10312000696C2E204469612E0046696C2E2044692A
:10313000612E004F6666004F6E20004520696E20AC
:103140006D6D3300436F6E74726F6C0043616E6E11
:103150006F7420656E746572207375626469723A6B
:103160002000022E2E004D61696E00457874727544
:10317000646572004D6F766520302E316D6D004DA7
:103180006F766520316D6D004D6F76652031306D45
:103190006D004D6F766520617869730045787472B3
:1031A00075646572004D6F7665205A004D6F7665C7
:1031B0002059004D6F76652058004578747275640B
:1031C0006572004D6F7665205A004D6F7665205907
:1031D000004D6F7665205800507265706172650011
:1031E000496E697469616C697A6520454550524F32
:1031F0004D00436F6E74726F6C00526573746F7222
:1032000065206661696C73616665004C6F6164205E
:1032100073657474696E677300496E697469616C73
:10322000697A6520454550524F4D0053746F726561
:103230002073657474696E677300424C546F7563D4
:10324000680046696C616D656E74004D6F74696FDE
:103250006E0054656D7065726174757265004D61C4
:10326000696E0070012C0190012701B0012201C09C
:10327000011D01F00118011002130130020E01605E
:1032800002090190020401C002FF000003FA00409D
:1032900003F5008003F000D003EB002004E600708B
:1032A00004E100E004DC004005D700C005D2004086
:1032B00006CD00D006C8008007C3003008BE00F06D
:1032C00008B900C009B400B00AAF00B00BAA00D022
:1032D0000CA500000EA000500F9B00C010960050DF
:1032E00012910000148C00C0158700B0178200B046
:1032F000197D00D01B7800001E730040206E0090E6
:10330000226900F024640040275F0090295A00E001
:103310002B5500102E500020304B0010324600E09C
:1033200033410090353C001037370070383200A030
:10333000392D00B03A2800A03B2300603C1E00104D
:103340003D1900903D1400103E0F00703E0A00C071
:103350003E0500003F0000403FFBFF803FF6FFC0FE
:103360003FF1FF202F002042403A0020403A004821
:10337000617264636F6465642044656661756C7432
:103380002053657474696E6773204C6F6164656463
:103390000A00D0070000D0070000780000001027C6
:1033A000000000007A4300007A430000F041000072
:1033B0005C42E17A9E42A4F09E4222A5C7430000EF
:1033C000C8433A0A0020286D6D290020204D383569
:1033D00031205A005A2D50726F6265204F66667315
:1033E00065740020440020490020204D33303420F3
:1033F000500020440020490020204D33303120501F
:10340000005049442073657474696E67733A0A000A
:1034100020460020420020480020204D3134352035
:1034200053004D6174657269616C206865617475E3
:103430007020706172616D65746572733A0A002064
:103440005A00204A002020473239205720490020C6
:103450005A0020204D3432302053004175746F20C3
:10346000426564204C6576656C696E673A0A002097
:103470005A0020590020204D323036205800486F25
:103480006D65206F66667365743A0A0020450020FA
:103490005A002059002058002054002053002020BA
:1034A0004D32303520420020453C6D61785F655FCC
:1034B0006A65726B3E0020583C6D61785F785F6A88
:1034C00065726B3E20593C6D61785F795F6A657209
:1034D0006B3E205A3C6D61785F7A5F6A65726B3E25
:1034E00000416476616E6365643A20423C6D696EAA
:1034F0005F7365676D656E745F74696D655F757325
:103500003E20533C6D696E5F6665656472617465EB
:103510003E20543C6D696E5F74726176656C5F66C7
:10352000656564726174653E00205400205200207D
:10353000204D323034205000416363656C65726108
:1035400074696F6E2028756E6974732F7332293A0F
:1035500020503C7072696E745F616363656C3E20DD
:10356000523C726574726163745F616363656C3E43
:1035700020543C74726176656C5F616363656C3E78
:103580000A00204500205A0020590020204D3230EA
:10359000312058004D6178696D756D204163636518
:1035A0006C65726174696F6E2028756E6974732F13
:1035B0007332293A0A00204500205A002059002081
:1035C000204D3230332058004D6178696D756D2083
:1035D0006665656472617465732028756E697473BD
:1035E0002F73293A0A00204500205A002059002054
:1035F000204D393220580053746570732070657205
:1036000020756E69743A0A0020204D323030204413
:10361000300A0020204D32303020440020446973AD
:1036200061626C65640A0046696C616D656E742048
:1036300073657474696E67733A0020204D313439B4
:103640002043203B20556E69747320696E204365CA
:103650006C736975730A00202047323120202020C6
:103660003B004D3234004D323320257300556E6BD4
:103670006E6F776E20636F6D6D616E643A2022000D
:10368000526573656E643A200000E3FCBC001124AF
:103690001FBECFEFD1E2DEBFCDBF00E00CBF13E015
:1036A000A0E0B2E0E2E6F3E202E00BBF02C0079066
:1036B0000D92A238B107D9F724E1A2E8B3E001C026
:1036C0001D92AA3FB207E1F71BE1C6E4DBE100E08F
:1036D00006C021970109802FFE010F941511C534F2
:1036E000D10780E00807A9F70E94EDFD0D94A01115
:1036F0000C9400002F923F924F925F926F927F92B4
:103700008F929F92AF92BF92CF92DF92EF92FF92F1
:103710000F931F93CF93DF93CDB7DEB7C656D10972
:103720000FB6F894DEBF0FBECDBF11E010936D0D44
:10373000809171148D3409F436C2843511F40C94DF
:103740002231873411F00C94663120916F1430913E
:1037500070142C31310509F47DC06CF4243031052E
:1037600034F4223031057CF537FF26C018C22430EE
:10377000310591F114C22A32310509F473C064F4A1
:103780002D31310509F46AC02E31310509F007C227
:103790000E947FB60C9468312B35310509F43EC187
:1037A0002C35310509F43EC12A35310509F0F7C140
:1037B000109286030C9468318091130281110C944D
:1037C0006D310C94683181E02230310509F080E0E0
:1037D0000E94C7CE0C94683180E50E94EF3C88239C
:1037E00029F00E94353C6B017C0103C0C12CD12C17
:1037F000760183E50E94EF3C882361F00E94753CCE
:1038000020E030E04AE754E40F94460A0F94630F37
:103810006B017C010E94F5F580912D06811105C098
:1038200060E08DED91E00E94EF610E943E9BC60E2C
:10383000D71EE81EF91E0E943E9BDC01CB018C19AD
:103840009D09AE09BF09B7FD02C00C9468310E9402
:10385000EEB7F1CF0E9494B00C9468310E94B0C9C9
:103860000C94683180911302882311F40C94683110
:1038700089E40E94EF3C182F882321F00E94453CE8
:10388000E62E01C0E12C8AE40E94EF3C082F882339
:1038900031F00E94453CF62E111104C00BC0F12CF2
:1038A0001123C1F022E02E1510F00C94B136E6EE93
:1038B000F1E004C032E03F15D0F30CC084918F01D9
:1038C0000F5F1F4F882311F40C9468310E940B3D49
:1038D000F801F4CF0E94013D1123F1F020910F0D6A
:1038E0003091100D4E2D4203B001439F700D1124F5
:1038F00080918C0C90918D0C680F791F072E000C15
:10390000880B990B0F94E7096093260D7093270D90
:103910008093280D9093290D0023F1F02091110D33
:103920003091120D5F2D5203B001539F700D112481
:1039300020918E0C30918F0C620F731F072E000C9C
:10394000880B990B0F94E70960932A0D70932B0D48
:1039500080932C0D90932D0D80E50E94EF3C8823E1
:10396000E9F00E94663C8823A9F11123D9F020E0F8
:1039700030E040E252E46091260D7091270D809175
:10398000280D9091290D0F941A0E6093260D7093B7
:10399000270D8093280D9093290D04C080E50E9487
:1039A000A83CE1CF0023B1F020E030E040EA51E450
:1039B00060912A0D70912B0D80912C0D90912D0D01
:1039C0000F941A0E60932A0D70932B0D80932C0D7B
:1039D00090932D0D86E40E94EF3C8823D9F00E943D
:1039E000753C6B017C0120E030E0A9010F94401090
:1039F000181684F420E030E040E752E4C701B60135
:103A00000F94F60E60933402709335028093360261
:103A1000909337020E940CBB0C946831109386037C
:103A20000C94683141E6242E42E0342E55EDC52E2B
:103A300052E1D52EE12CF12C00E010E0D1018D9166
:103A40001D010E94EF3C882309F44EC00E94753C82
:103A50002B013C01133059F0F701E95CF24F208152
:103A60003181428153810F94190E2B013C01F701E2
:103A7000E95BF24F2081318142815381C301B20160
:103A80000F94190E4B015C012DEB37E346E855EB23
:103A90000F94401087FD0AC02DEB37E346E855E34D
:103AA000C501B4010F94E1091816F4F4133051F470
:103AB0004092530D5092540D6092550D7092560DD8
:103AC00001E012C0A5019401F6016081718182813B
:103AD00093810F941A0ED6016D937D938D939C93D1
:103AE0001397812F0E94E6391F5FB4E0CB0ED11CE3
:103AF000E4E0EE0EF11C143009F0A0CF002309F42D
:103B00004AC02091C90C3091CA0C4091CB0C509105
:103B1000CC0C6091530D7091540D8091550D909186
:103B2000560D0F94460A0F944B106093A90670939C
:103B3000AA068093AB069093AC069091870680917D
:103B40008806981719F00E9497F525C00E94F5F590
:103B500080916F0081FB992790F981FF05C08091CA
:103B60006F008D7F80936F004091A9065091AA0647
:103B70006091AB067091AC064093110C5093120CFF
:103B80006093130C7093140C992329F080916F00AB
:103B9000826080936F000E94FFB30C9468310E9492
:103BA00000F20C94683180916F14909170148637F4
:103BB000910509F460C70CF0BFC08C34910509F47D
:103BC000D0C40CF050C08931910509F460C21CF5D5
:103BD0008431910509F42CC27CF48131910509F4FA
:103BE00018C22CF4029708F49CC10C941F31429720
:103BF00009F424C60C941F318631910509F420C2C2
:103C00000CF41AC28731910509F420C2489709F4CF
:103C100033C20C941F318E31910509F4F0C284F443
:103C20008B31910509F447C20CF437C28C319105F0
:103C300009F4DBC24D9711F40C9468310C941F31D8
:103C40008032910509F476C30CF4C0C38A32910521
:103C500009F462C48B34910511F00C941F310E9459
:103C600030820C9468318A36910509F4D7C5B4F5D1
:103C70008435910509F4E2C5E4F48135910509F430
:103C8000D5C54CF48D34910511F00C941F310E9470
:103C90007E820C9468318235910509F4CBC5833559
:103CA000910511F00C941F3181E0809385030C94F1
:103CB00068318C35910509F4E0C534F485359105FA
:103CC00009F4C0C50C941F318836910509F44DC420
:103CD0008936910509F411C50C941F318F36910571
:103CE00009F485C484F48C36910509F4CEC40CF42F
:103CF00099C58D36910509F442C58E36910509F4B2
:103D000063C40C941F318237910509F43FC654F403
:103D10008037910509F4BDC48137910509F4C1C408
:103D20000C941F318337910509F436C68537910508
:103D300009F490C60C941F318D32F1E09F0711F405
:103D40000C948E290CF06DC08B3C910509F45AC778
:103D50006CF58139910509F44DC784F488379105D4
:103D600009F43BC70CF4D3C68937910509F43CC765
:103D70008C38910509F41FC50C941F318E3B9105B9
:103D800009F437C534F48B39910509F4D1C40C9486
:103D90001F31883C910509F431C7893C910511F028
:103DA0000C941F310E944DB30C9468318C3D9105E9
:103DB00011F40C94D1279CF48D3C910509F42AC789
:103DC0000CF424C78E3C910509F428C7833D910566
:103DD00011F00C941F31EDE9FCE00C94F2268831CF
:103DE00031E0930711F40C94802864F48D3D910523
:103DF00011F40C94E027823E910511F40C945128A3
:103E00000C941F31823251E0950711F40C942E2945
:103E10008C32914011F00C941F310E94FFB10C9430
:103E20006831853AB1E09B0711F40C94F22FA4F5A8
:103E30008039F1E09F0711F40C94DA2EC4F48F322C
:103E400031E0930711F40C94832A14F40C942F2A74
:103E5000803351E0950711F40C94462E833691403F
:103E600011F00C941F31E2E8FCE00C94C32E82396F
:103E7000B1E09B0711F40C94E32E14F40C94DD2EA6
:103E80008A39F1E09F0709F408C4843A914011F49B
:103E90000C94E92E0C941F31873F31E0930711F405
:103EA0000C948B30E4F4843F51E0950711F40C94AA
:103EB000853034F48C3A914009F4B4C60C941F3127
:103EC000853FE1E09E0711F40C948830863F9140D5
:103ED00011F00C941F310E94BCEF0C9468318B38A8
:103EE00023E0920711F40C9468316CF4883F41E0B0
:103EF000940711F40C9496308335934011F40C948C
:103F0000B9300C941F31803AA3E09A0709F451C2EA
:103F1000873E934011F00C941F310E94ACB10C9479
:103F20006831A0906D14B0906E1480E50E94EF3C53
:103F3000882359F00E94353C6B017C0111E0672B0E
:103F4000682B692B31F410E004C010E0C12CD12C97
:103F5000760183E50E94EF3C882311F40C947231C2
:103F60000E94753C20E030E04AE754E40F94460A92
:103F70000F94630F6B017C0111110BC0672B682B31
:103F8000692B39F4A114B10421F0F501808181116C
:103F900002C010E001C011E00E94F5F5112329F0E4
:103FA00061E0C5010E94296205C060E085E092E001
:103FB0000E94EF6183E080936D0D81E08093D109D1
:103FC000C114D104E104F104E9F00E943E9BC60E45
:103FD000D71EE81EF91E0E943E9BDC01CB018C1906
:103FE0009D09AE09BF09B7FD06C00E94D9651092B0
:103FF000D1090C9468318091D1098823B1F30E94D2
:10400000EEB7E9CF8091D109882379F30E94EEB70A
:10401000F9CF60E088E192E00E94EF615F988A98B2
:104020008091080181708093060112980C94683188
:104030000E9427B60C9468310E94D2AB0C94683170
:1040400010923D0710923E070C946831E0916D1478
:10405000F0916E148081882329F0803209F4108257
:104060003196F8CF40E061E080916D1490916E142C
:104070000E9448570C94683180913E07882319F0BC
:1040800081E080933D070E9430820C946831109249
:104090003D070E9469820C94683180913E07882315
:1040A00011F40C94683183E50E94EF3C81110C946B
:1040B00077310C94683183E40E94A83C882309F48A
:1040C00054C0EEE4F2E084918F010F5F1F4F88230C
:1040D00021F00E940B3DF801F6CF8091080988235A
:1040E00091F0BE016F5F7F4F85E099E00E944ED551
:1040F0008E010F5F1F4FD8018D918D01882381F1B3
:104100000E940B3DF8CFE1E2F2E084918F010F5F56
:104110001F4F882329F10E940B3DF801F6CF8091B3
:10412000FF03882309F4A4C22CECC22E22E0D22E75
:10413000E12CF12C20E08091FF0390E00E2C02C0D6
:10414000959587950A94E2F780FD7AC2FFEFEF1A02
:10415000FF0A32E0C30ED11C45E0E416F10459F722
:104160008AE00E940B3D0C94683180913E078823C1
:1041700071F180913D07882351F1EBE2F2E08491E7
:104180008F010F5F1F4F882321F00E940B3DF80124
:10419000F6CF6091B6097091B7098091B8099091F6
:1041A000B9094AE00E9463408FE20E940B3D609192
:1041B000B2097091B3098091B4099091B5094AE0B0
:1041C0000E9463408AE00E940B3D0C946831EDE34D
:1041D000F2E084918F010F5F1F4F882311F40C943C
:1041E00068310E940B3DF801F4CF40E060E080911F
:1041F0006D1490916E140E9448570C946831809110
:104200003E07882311F40C94683185E099E00E9400
:10421000DC7685E099E00E949ED510923C071092D2
:104220003B0700916D1410916E1480913E07882316
:1042300011F40C9468310E942854B801CE014C96B8
:104240000E9470538C01892B11F40C9468316C8D91
:104250007D8D6115710511F06C5F7F4F19821C8295
:1042600022E0A801CE0101960E94A7D5811102C0CB
:10427000F12C1EC0CE0101960E94DE528823C1F3AC
:104280006D857E858F85988941E00E942D758823F4
:1042900079F3E989B0E2EB9FF0011124E45EFB4F72
:1042A000309731F385EE80831C820E94ED74F82EE6
:1042B000CE0101960E94FB3CFF2011F1EDE5F2E0FA
:1042C00084917F012FEFE21AF20A882321F00E94E5
:1042D0000B3DF701F5CFD8018D918D01882319F0A1
:1042E0000E940B3DF8CF8AE00E940B3D1092B60968
:1042F0001092B7091092B8091092B9090C9468315C
:10430000EBE6F2E084917F01BFEFEB1AFB0A882312
:1043100021F00E940B3DF701F5CFF80181918F014B
:10432000882319F00E940B3DF8CF8EE20E940B3DCE
:104330000C94683180913D0781110E94F5F58091C0
:104340003E07882311F40C94683180E50E94EF3C0D
:10435000882319F00E94663C03C080E50E94A83CB7
:10436000182F482F61E080916D1490916E140E9477
:10437000485783E50E94EF3C882381F00E94453C2A
:10438000AB01BC014093B6095093B7096093B809DB
:104390007093B90985E099E00E941D7780913E07EE
:1043A000882319F081E080933D0711110C94683146
:1043B0006ACE80916D1490916E1421E020933C0799
:1043C00040E060E00E9448570C9468310E94FC81F4
:1043D0003CE3C32ED12CE12CF12CA70196010F94C4
:1043E000BC0D762E672ECA01B901A70196010F9464
:1043F000BC0D6B017C01CA01B90128E130E040E04D
:1044000050E00F94BC0D4B015C01C9016DE671E0F9
:104410000F94EE108E010F5F1F4F6115710599F01B
:104420006F927F92DF92CF929F928F929F938F9302
:104430007F936F938BEA92E09F938F931F930F93D9
:104440000F947A0912C00097B1F06F927F92DF92B9
:10445000CF929F928F929F938F938BE992E09F933D
:104460008F931F930F930F947A090FB6F894DEBFC2
:104470000FBECDBF36C081149104A104B10479F000
:104480006F927F92DF92CF929F928F928FE892E00D
:104490009F938F931F930F930F947A09E6CFC114C4
:1044A000D104E104F10469F06F927F92DF92CF9220
:1044B00087E892E09F938F931F930F930F947A094D
:1044C000D4CF6F927F9283E892E09F938F931F9354
:1044D0000F930F947A090F900F900F900F900F90F9
:1044E0000F9060E0C8010E942962EDE9FCE0849130
:1044F0007F01BFEFEB1AFB0A882321F00E940B3DDE
:10450000F701F5CFB8018FEB92E00E94AE438AE04D
:104510000E940B3D0C94683183E50E94EF3C882398
:1045200011F40C9468310E94553CE82E80E50E94FD
:10453000EF3C882339F00E94553C182F87FF03C0B9
:104540000C9468311DE0EDE8F5E08DE28E0F94915A
:10455000191711F40C949C3131968E13F8CF0C94EA
:1045600088310E9469820C94683188E690E00E944C
:10457000C94081110C9468318091FF0383FF02C010
:104580000C94683183E50E94EF3C8823C9F00E94B7
:10459000753C0F945E0F70932A146093291480E089
:1045A0000E948A800E94753C20E030E04AEA52E492
:1045B0000F94E109181624F00E947E820E94D965AA
:1045C0000E94B3FC0C9468318EE40E94EF3C882377
:1045D00011F40C9468310E94453C60932906709355
:1045E0002A0680932B0690932C060C94683183E561
:1045F0000E94A83C882359F083E50E94EF3C882361
:1046000019F00E94553C01C080E08093FF03EDE962
:10461000FCE084918F010F5F1F4F882321F00E94DF
:104620000B3DF801F6CFEAEDF2E084918F010F5FC8
:104630001F4F882309F473CD0E940B3DF801F5CF7D
:10464000BB24B394B20E222319F08CE20E940B3DDE
:10465000F60125913491F901849189010F5F1F4F73
:10466000882321F00E940B3D9801F5CF2B2D6ECDB4
:10467000E6EDF2E084918F010F5F1F4F882309F46C
:104680006FCD0E940B3DF801F5CF109212020C94F1
:10469000683181EE92E00E948EB70E94C1B10C9405
:1046A000683183E50E94EF3C882369F00E94553C05
:1046B0008D3320F4809343020C9468318CE3809313
:1046C00043020C946831EDE9FCE084918F010F5FA7
:1046D0001F4F882321F00E940B3DF801F6CF409137
:1046E000430250E060E070E08AEE92E00E94614395
:1046F0008AE00E940B3D0C94683189E690E00E94AC
:10470000C940811111C0E1EFF2E084918F010F5F88
:104710001F4F882321F00E940B3DF801F6CF0E9425
:1047200055EA8AE00E940B3D10926D0D0C94B7364D
:1047300083E50E94EF3C882311F40C9468310E94B9
:10474000553C182F8D3308F01CE310937A0D0E940E
:104750003E9B6B017C01212F30E0A8EEB3E00F946B
:104760000A0EC60ED71EE81EF91EC092760DD09214
:10477000770DE092780DF092790D0C9468318DE60A
:1047800090E00E94C94081110C9468318091FF0330
:1047900083FF02C00C94683183E50E94EF3C88A33C
:1047A00081110C949F3182E50E94EF3C81110C94A1
:1047B0009F310C9468318091FF0383FF02C00C94F9
:1047C000683183E50E94EF3C882311F40C94683132
:1047D0000E94753C0F945E0F6639710514F066E90E
:1047E00070E070932814609327140E943F800C940B
:1047F00068318091FF0383FF02C00C94683183E528
:104800000E94EF3C8DA781110C94193382E50E9420
:10481000EF3C81110C9419330C9468310E940BB653
:104820000C9468310E94FCB50C9468310E9472B5FA
:104830000C946831109285030C9468310E9414B571
:104840000C94683183E50E94A83C882311F40C94F1
:1048500068310E94753C20E030E04AE754E40F9450
:10486000460A0F94630F6093720D7093730D8093DB
:10487000740D9093750D0C946831A1E6CA2EA2E0D8
:10488000DA2EBDEBEB2EBCE0FB2E10E0D6018D91B5
:104890006D010E94A83C882309F46DC0133009F013
:1048A00063C00E94753C4B015C0120E030E040EAAF
:1048B00051E40F94E10987FF4EC0A5019401609176
:1048C000C90C7091CA0C8091CB0C9091CC0C0F94B8
:1048D000F60E2B013C019B01AC016091B90C70916B
:1048E000BA0C8091BB0C9091BC0C0F94460A60935B
:1048F000B90C7093BA0C8093BB0C9093BC0CA301C1
:10490000920160910B0D70910C0D80910D0D9091A5
:104910000E0D0F94460A60930B0D70930C0D80934F
:104920000D0D90930E0D60910C0470910D0480910B
:104930000E0490910F040F94E509A30192010F94C6
:10494000460A0F94630F60930C0470930D048093D8
:104950000E0490930F048092C90C9092CA0CA092FE
:10496000CB0CB092CC0C07C00E94753CF701608361
:104970007183828393831F5FF4E0EF0EF11C143088
:1049800009F084CF0E9414450C9468310E94F5F51B
:104990000E94FFB30C946831E3E1F4E084918F014D
:1049A0000F5F1F4F882321F00E940B3DF801F6CFC7
:1049B00060E083E094E00E94BBB361E08CEF93E0A1
:1049C0000E94BBB361E081EF93E00E94BBB361E062
:1049D00081EE93E00E94BBB360E088ED93E00E941B
:1049E000BBB361E08EEC93E00E94BBB361E084EC6A
:1049F00093E00E94BBB361E08CEB93E00E94BBB3F9
:104A000061E08EEA93E00E94BBB360E080EA93E04D
:104A10000E94BBB360E081E993E00E94BBB360E019
:104A200083E893E00E94BBB360E08DE693E00E94D0
:104A3000BBB360E08CE593E00E94BBB360E087E429
:104A400093E00E94BBB361E084E393E00E94BBB3B8
:104A50000C94683180916D1490916E14DC012C914E
:104A6000211104C00E94D9650C94683160E00E9455
:104A700029620C94683100916D1410916E1483E0DA
:104A8000D12C40E08150E1F0F8019081292F2B7F5B
:104A90002134C1F721812133A9F7913421F09534D4
:104AA00021F441E002C0DD24D39498012E5F3F4FF2
:104AB00089012F5F3F4FD8019C919032C9F3E2CF1B
:104AC000442369F0EDE9FCE084917F01BFEFEB1A2C
:104AD000FB0A882321F00E940B3DF701F5CFDD2072
:104AE00069F0EBEDF4E084917F012FEFE21AF20A16
:104AF000882321F00E940B3DF701F5CFD8018D915D
:104B00008D01882309F42CCB0E940B3DF7CFE7EFF2
:104B1000F4E084918F010F5F1F4F882321F00E94E2
:104B20000B3DF801F6CFEFEEF4E084918F010F5FBB
:104B30001F4F882321F00E940B3DF801F6CF659BA3
:104B400003C007E313E002C00CE313E0F801819116
:104B50008F01882319F00E940B3DF8CF8AE00E9454
:104B60000B3DE7EEF4E084918F010F5F1F4F882328
:104B700021F00E940B3DF801F6CF8091030181FFE7
:104B800003C007E313E002C00CE313E0D8018D91EA
:104B90008D01882319F00E940B3DF8CF8AE00E9416
:104BA0000B3DEFEDF4E084918F010F5F1F4F8823E1
:104BB00021F00E940B3DF801F6CF4B9903C007E3AB
:104BC00013E002C00CE313E0F80181918F01882308
:104BD00009F4C6CA0E940B3DF7CF81E08093240DF3
:104BE0008093250D0C9468311092240D1092250DA0
:104BF0000C9468310E9485B50C9468310E9472B3A0
:104C00000C9468310E942BB30C9468310E94B4B2AA
:104C10000C9468310E9433B20C9468310E94ECB459
:104C20000C9468310E94FFAD81110C946831F3EB54
:104C30008F2EF0E39F2E27E43DE039A328A3AE0199
:104C40004F5F5F4F5A010CE011E31A0153E0500F20
:104C50005EA3F4016591759185919491A8A1B9A184
:104C6000CD90DD90ED90FD90B9A3A8A3A70196018A
:104C70000F94190E2B013C0120E030E040EA51EC8A
:104C80000F94401087FD10C020E030E040EA51E46E
:104C9000C301B2010F94E109181634F0F10140820A
:104CA0005182628273820EC0F80184911816B4F7A3
:104CB000F7FAF094F7F8F094D101CD92DD92ED92ED
:104CC000FC921397D101CD90DD90ED90FD901D01E8
:104CD00020E030E040EA51ECC701B6010F944010EB
:104CE00087FF03C0E2E8FCE00BC020E030E040EAD0
:104CF00051E4C701B6010F94E10918167CF5F2CF13
:104D000084918F010F5F1F4F882321F00E940B3D7C
:104D1000F801F6CFEFE2F5E084918F010F5F1F4FAE
:104D2000882321F00E940B3DF801F6CF61E081E27B
:104D300095E00E94EF610E94C46B88E290E09D8F35
:104D40008C8F88EC90E09F8F8E8FBE01645E7F4FCA
:104D5000CE014E960E9416AD0C946831B4E08B0ED5
:104D6000911C0F5F1F4FEEA1E01373CFE0E6EE2E14
:104D7000EAE0FE2E10E0F50181919191A191B191AF
:104D80005F01F70181939193A193B1937F01812FEB
:104D90000E94E6391F5F133071F70E94FFB360E095
:104DA00081E195E00E94EF6183E992E09F8F8E8F11
:104DB00004E610E01D8F0C8FBE01625E7F4FCE01B6
:104DC0004C960E9416AD8AEB92E09F8F8E8F1D8FBE
:104DD0000C8FBE01625E7F4FCE014C960E9416ADD5
:104DE0000C94683184918F010F5F1F4F882321F04D
:104DF0000E940B3DF801F6CF83E50E94A83C882372
:104E000021F00E94663C80932F02E5E7F5E0849153
:104E10008F010F5F1F4F882321F00E940B3DF80187
:104E2000F6CF80912F02811103C0E1E7F5E002C0C7
:104E3000EDE6F5E084918F010F5F1F4F882321F08D
:104E40000E940B3DF801F6CFE5E6F5E084918F0175
:104E50000F5F1F4F882321F00E940B3DF801F6CF12
:104E60002091370D3091380D4091390D50913A0D08
:104E70006091180D7091190D80911A0D90911B0D74
:104E80000F941A0EAB01BC0183E695E00E947C43AF
:104E900020913B0D30913C0D40913D0D50913E0DC8
:104EA00060911C0D70911D0D80911E0D90911F0D34
:104EB0000F941A0EAB01BC0180E695E00E947C4382
:104EC00020913F0D3091400D4091410D5091420D88
:104ED0006091200D7091210D8091220D9091230DF4
:104EE0000F941A0EAB01BC018DE595E00E947C4346
:104EF000E5E5F5E084918F010F5F1F4F882321F0D6
:104F00000E940B3DF801F6CF2091370D3091380DFE
:104F10004091390D50913A0D609123027091240215
:104F200080912502909126020F941A0EAB01BC01CC
:104F300083E595E00E947C4320913B0D30913C0D30
:104F400040913D0D50913E0D6091270270912802D5
:104F50008091290290912A020F941A0EAB01BC0194
:104F600080E595E00E947C4320913F0D3091400DFB
:104F70004091410D5091420D60912B0270912C0295
:104F800080912D0290912E020F941A0EAB01BC015C
:104F90008DE495E00E947C438AE00E940B3D0C94D6
:104FA000683183E50E94EF3C882311F40C9468314A
:104FB0000E94453C70930B0260930A020C94683186
:104FC0008DED90E00E94C94081110C94683183E519
:104FD0000E94EF3C8823E1F10091EE1210E00E9464
:104FE000453C000F111FF801E85FFD4F718360839E
:104FF0008091EE1290E08C01000F111F000F111F25
:1050000098012C5F3D4F7901880F991FFC01E85FE3
:10501000FD4F60817181072E000C880B990B0F9456
:10502000E7092AE037ED43E25CE30F94460AF80112
:10503000ED5BF54F20813181428153810F94460A07
:10504000D7016D937D938D939C9313970C94683146
:10505000EDE9FCE084918F010F5F1F4F882321F061
:105060000E940B3DF801F6CF85E40E940B3D809134
:10507000EE12805D0E940B3DE091EE12F0E0EE0F2B
:10508000FF1FE85FFD4F6081718185E895E00E9418
:10509000974385E20E940B3D8AE00E940B3D0C94F1
:1050A000683180E50E94A83C882311F40C94683193
:1050B0000E94453C6B017C0183E50E94EF3C882304
:1050C00021F00E94453C8B0102C00FEF1FEFC80189
:1050D0000196039710F00C946831D7FE02C00C942F
:1050E00068319C2DEDE8F5E08DE28E0F249192174A
:1050F00011F40C949C3131968E13F8CF0C949A34A1
:1051000080E50E94A83C882311F40C9468310E9429
:10511000453C6B017C018B01672B09F080C083E566
:105120000E94A83C882341F00E94453C8AE197E018
:105130000E94DEC80C946831EDE9FCE084917F01A7
:10514000BFEFEB1AFB0A882321F00E940B3DF70109
:10515000F5CF60E070E083ED95E00E949743809189
:105160001C0728E532E06901C81AD10887FDD394ED
:10517000CC0CDD1CCC0CDD1C0D2C000CEE08FF084B
:1051800080911B0728E830E04901881A910887FDC3
:105190009394880C991C880C991C092C000CAA0863
:1051A000BB0880911A078F3FB9F090E0FC01EE0F29
:1051B000FF1F8E0F9F1FFC01E355F94F01811281E4
:1051C00083E0000F111F8A95E1F794E0169507958B
:1051D0009A95E1F70E5F1F4F98012F5F3F4FC9016E
:1051E000330FAA0BBB0B9C01AD01281939094A09E1
:1051F0005B09A4EBB0E00F94FA0DA7019601281902
:1052000039094A095B090F94DE0DB90180ED95E07B
:105210000E9497438AE00E940B3D0C946831E2E8BB
:10522000FCE084918F010F5F1F4F882321F00E94C3
:105230000B3DF801F6CFB60189EC95E00E9497434B
:10524000EAEBF5E084918F010F5F1F4F882311F483
:105250000C9468310E940B3DF801F4CFB1E6CB2EDF
:10526000B2E0DB2E1DEBE12E1CE0F12E00E010E0A1
:10527000F60181916F010E94EF3C811109C002305B
:10528000110509F041C083E50E94EF3C8823E1F15C
:105290000E94753C20E030E040E050EC0F94E109C2
:1052A00087FF02C00C94C8340E94753C20E030E0B7
:1052B00040E050E40F944010181614F40C94C234DB
:1052C0000E94753CD7012D913D914D915C91E091EB
:1052D000360DF0E0002E02C0F595E7950A94E2F74E
:1052E000E0FF12C0F801EE0FFF1FDF01A35DB54F15
:1052F0005D018D909C900F94460A0F945E0F680D8F
:10530000791DF501718360830F5F1F4FF4E0EF0E8D
:10531000F11C0330110509F0ABCFDAC785E40E9418
:10532000EF3C811110C080E50E94A83C882391F0D9
:105330000E94753C6093D60C7093D70C8093D80C68
:105340009093D90C07C00E94553C882361F3E2E892
:10535000FCE06EC089E40E94A83C882381F00E9492
:10536000753C2CEA35EC47E25EE30F94460A609305
:10537000E60C7093E70C8093E80C9093E90C84E4BE
:105380000E94A83C882381F00E94753C2CEA35ECF1
:1053900047E25EE30F94F60E6093DE0C7093DF0C31
:1053A0008093E00C9093E10CEDE9FCE084918F0197
:1053B0000F5F1F4F882321F00E940B3DF801F6CFAD
:1053C0004091D60C5091D70C6091D80C7091D90CAB
:1053D00083EE95E00E947C432CEA35EC47E25EE3E5
:1053E0006091E60C7091E70C8091E80C9091E90CCB
:1053F0000F94F60EAB01BC018FED95E00E947C434B
:105400002CEA35EC47E25EE36091DE0C7091DF0C34
:105410008091E00C9091E10C0F94460AAB01BC0125
:105420008BED95E00E947C438AE00E940B3D50C7C3
:1054300084918F010F5F1F4F882321F00E940B3D45
:10544000F801F6CFE7EEF5E084918F010F5F1F4F73
:10545000882309F43DC70E940B3DF801F5CF83E591
:105460000E94A83C182F882371F00E94753C0F946D
:105470005E0F709301026093000221E0672B09F038
:1054800020E02093FE0380E50E94A83C882359F089
:105490002091000230910102232B11F00E94663C02
:1054A0008093FE0315C7111113C7EDE9FCE0849149
:1054B0008F010F5F1F4F882321F00E940B3DF801E1
:1054C000F6CF8091FE03811103C066E473E002C051
:1054D00069E373E08EE096E00E94AE4360910002C3
:1054E000709101028DEF95E00E949743E9EFF5E09E
:1054F00084918F010F5F1F4F882309F4E9C60E9432
:105500000B3DF801F5CF85E40E94EF3C882321F0A4
:105510000E94453C7B0102C0E12CF12C83E40E94F7
:10552000EF3C882331F00E94453C25966FAF2597CC
:1055300004C045E025964FAF259785E50E94EF3CD6
:10554000882319F00E94663C03C085E50E94A83CB0
:1055500061968FAF6197F7FC07C0812C912C66E1B3
:10556000A62E63E4B62E06C0812C912C5CE8A52EF5
:1055700052E4B52E83E50E94EF3C882321F00E947F
:10558000753C4B015C01E114F10411F41092EE1230
:10559000E8A20E943E9B2B013C0158A157FD03C08D
:1055A00004E110E002C00CE310E0D301C2018C530F
:1055B000964FAF4FBF4F8093210C9093220CA09336
:1055C000230CB093240C61E06E0D623068F0EAEBBE
:1055D000F7E084918F010F5F1F4F882309F478C68D
:1055E0000E940B3DF801F5CFE4EEF7E084917F01D6
:1055F0009FEFE91AF90A882321F00E940B3DF70179
:10560000F5CF0E949382A8A1A7FF04C08FE78093E3
:10561000ED1208C0B8A1EB2FBB0FFF0BE451FD4EFC
:105620008FE78083C501B4010F945E0F072E000C35
:10563000880B990B0F94E7096AA77BA78CA79DA7F6
:105640009801A8EEB3E00F940A0E65966CAF7DAF9B
:105650008EAF9FAF65979B01AC01240D351D461D94
:10566000571DA1962CAF3DAF4EAF5FAFA19781E024
:10567000809312022C964CAE5DAE6EAE7FAE2C9730
:1056800069964CAE5DAE6EAE7FAE699728961FAE42
:1056900028976D961CAE1DAE1EAE1FAE6D971AAE4E
:1056A00030E43BAF4CE14CAF56E45DAF1EAE1FAEF5
:1056B00021961FAE219722961FAE22971EAA1FAADF
:1056C00018AE19AE1AAA1BAA1CAA1DAA1AA21BA2BE
:1056D0001CA21DA28FE790E0A0E0B0E08EA39FA3E4
:1056E000A8A7B9A73FE7C32ED12CE12CF12C6096D7
:1056F0001CAE1DAE1EAE1FAE609791E027969FAF09
:1057000027971FA61EA610E0212C312C00E0A8A18F
:105710008A2FAA0F990BFC01E451FD4EA396FFAF0F
:10572000EEAFA397880F991F880F991F9C012651F0
:10573000364F24963FAF2EAF249725964FAD259731
:10574000042E000C550B26965FAF4EAF2697809126
:105750001202882309F409C10E943E9B4B015C019F
:105760008091250C882309F4E4C00E94718158A11E
:1057700057FF09C01091EE092090EF093090F00911
:105780000091F1090DC02496AEADBFAD24971C91D8
:1057900011962C90119712963C90129713960C919B
:1057A000212F322D432D502F6EAD7FAD21968FAD21
:1057B000219722969FAD22970F94E10987FF08C099
:1057C0001EAF2FAE21963FAE219722960FAF2297A4
:1057D000212F322D432D502F6AAD7BAD8CAD9DAD69
:1057E0000F944010181624F41AAF2BAE3CAE0DAF38
:1057F0008091210C9091220CA091230CB091240C4B
:10580000A5019401281B390B4A0B5B0B57FD10C0F7
:105810000E949181D501C4018C53964FAF4FBF4F69
:105820008093210C9093220CA093230CB093240C12
:1058300027963FAD27972AA5332309F459C03BA5E6
:105840004CA55DA5612F722D832D902F0F944010D4
:1058500018160CF06EC0D501C40184199509A6096B
:10586000B709A7968CAF9DAFAEAFBFAFA7978858CB
:105870009341A109B109B7FD5CC0D701C6012EA1B2
:105880003FA148A559A5821B930BA40BB50B38A1CA
:10589000B595A7959795879537FF03C08093ED122F
:1058A00005C0A396EEADFFADA3978083A7962CAD60
:1058B0003DAD4EAD5FADA79760962CAF3DAF4EAFFF
:1058C0005FAF60973AA53EAF4BA54FAF5CA5219661
:1058D0005FAF21978DA522968FAF22972C968CAE25
:1058E0009DAEAEAEBFAE2C9727961FAE279721C0B8
:1058F0003BA54CA55DA5612F722D832D902F0F9494
:10590000E10987FF16C0D501C4012C962CAD3DAD31
:105910004EAD5FAD2C97821B930BA40BB50BAC0166
:10592000BD01485853416109710977FD02C00C94CB
:10593000CE3420E030E040EA51E46AA57BA58CA596
:105940009DA50F941A0E9B01AC01612F722D832D22
:10595000902F0F94401018167CF4E6E4F7E0849141
:105960008F010F5F1F4F811103C00E949382B0C44B
:105970000E940B3DF801F3CFD501C40169962CAD0F
:105980003DAD4EAD5FAD6997821B930BA40BB50B7C
:10599000B7FD9AC00E9455EA8AE00E940B3DD501EE
:1059A000C4018053984FAF4FBF4F69968CAF9DAFE6
:1059B000AEAFBFAF699728969FAD2897911163C08E
:1059C0006D962CAD3DAD4EAD5FAD6D97612F722DD7
:1059D000832D902F0F9440101816E4F520E030E04E
:1059E00040E050E4612F722D832D902F0F941A0EFA
:1059F0006D966CAF7DAF8EAF9FAF6D9765962CADFA
:105A00003DAD4EAD5FAD6597280D391D4A1D5B1D3F
:105A1000A1962CAF3DAF4EAF5FAFA19720E030E035
:105A200040EC50E46AA57BA58CA59DA50F94190EAA
:105A30009B01AC0181E028968FAF2897612F722DD2
:105A4000832D902F0F9440101816F4F128961FAE56
:105A500028973AC0D501C401A1962CAD3DAD4EADFD
:105A60005FADA197821B930BA40BB50BB7FD2CC0A8
:105A700038A13F3F19F042E157E002C044E257E04D
:105A800067E377E01EC020E030E040EA51E46AA519
:105A90007BA58CA59DA50F94190E9B01AC01612FD0
:105AA000722D832D902F0F94E10987FF0DC048A11F
:105AB0004F3F19F04BED56E002C04EEE56E062E06B
:105AC00077E088A10E94B682D501C401880F991F92
:105AD000AA1FBB1F2C962CAD3DAD4EAD5FAD2C97D4
