:100000000C94361C0C94671C0C94671C0C94671C95
:100010000C94671C0C94671C0C94671C0C94671C54
:100020000C94671C0C94671C0C94671C0C94671C44
:100030000C94671C0C94671C0C94671C0C94671C34
:100040000C94671C0C9479460C94671C0C94671CE8
:100050000C94671C0C94671C0C9439710C940CD094
:100060000C94671C0C94A43B0C94671C0C94671CA8
:100070000C94671C0C94671C0C94671C0C94671CF4
:100080000C94671C0C94671C0C94671C0C94671CE4
:100090000C94671C0C94671C0C94671C0C94671CD4
:1000A0000C94671C0C94671C0C94671C0C94671CC4
:1000B0000C94671C0C94671C0C94671C0C94671CB4
:1000C0000C94671C0C94671C0C94671C0C94671CA4
:1000D0000C94671C0C94671C0C94671C0C94671C94
:1000E0000C94671C9FC6EFC427C5D9C627C527C572
:1000F00027C527C527C527C527C527C527C527C5A0
:1001000027C527C527C527C527C527C527C527C58F
:1001100027C527C527C527C527C527C527C527C57F
:10012000D4C627C527C527C527C527C527C527C5C1
:1001300027C5ADC627C527C527C527C527C527C5D8
:1001400027C527C527C527C5F0C624C5FDCC00CDCA
:10015000EFCCF3CCF9CC37CD04CD08CD0ECD12CDFC
:1001600016CD1CCD20CD24CD37CD2ACD2ECD32CDF0
:1001700028CF2DCF32CF3CCF46CFBFCF50CF58CF97
:1001800060CF6ACF74CF7ECF8DCF97CFBFCFA1CFB7
:10019000ABCFB5CF084AD73B3BCE016E84BCBFFD89
:1001A000C12F3D6C74319ABD56833DDA3D00C77F47
:1001B00011BED9E4BB4C3E916BAAAABE00000080E0
:1001C0003F05A84CCDB2D44EB93836A9020C50B96F
:1001D000918688083CA6AAAA2ABE000000803F009B
:1001E0004E414E494E495459494E46CDCCCC3D0A1C
:1001F000D7233C17B7D13877CC2B329595E6241FFF
:10020000B14F0A000020410000C84200401C4620B7
:10021000BCBE4CCA1B0E5AAEC59D74434F4D4D55C6
:100220004E49434154494F4E0044525952554E0095
:100230004552524F525300494E464F004543484F96
:100240000047322F47332062616420706172616D14
:1002500065746572730A00536C6565702E2E2E00EE
:100260005445564F20546F726E61646F2072656101
:1002700064792E00526573756D696E6720707269BE
:100280006E7400436C69636B20746F2072657375C4
:100290006D652E2E2E004E6F206D6F76652E0045FB
:1002A0006E642066696C65206C6973740A0042652F
:1002B00067696E2066696C65206C6973740A005307
:1002C00044207072696E74696E672062797465206B
:1002D000004E6F74205344207072696E74696E67AB
:1002E0000A002569730025696D2025697300256959
:1002F000682025696D2025697300256964202569BA
:10030000682025696D202569730025697920256994
:1003100064202569682025696D2025697300507265
:10032000696E742074696D653A200050726F74654F
:10033000637465642050696E0A0045256920257341
:10034000005445564F20546F726E61646F20726581
:100350006164792E003C023702300229021B026FD1
:1003600066660044454255473A004B494C4C45446B
:100370002E20004D3131332053006F6B0054455611
:100380004F20546F726E61646F204F66662E00437B
:1003900061703A454D455247454E43595F50415271
:1003A0005345523A300A004361703A434153455F26
:1003B0004C494748545F4252494748544E4553536D
:1003C0003A300A004361703A544F47474C455F4CFE
:1003D00049474854533A300A004361703A534F46F4
:1003E00054574152455F504F5745523A300A0043E7
:1003F00061703A4C4556454C494E475F4441544123
:100400003A300A004361703A5A5F50524F42453ABF
:10041000300A004361703A4155544F4C4556454CA3
:100420003A300A004361703A5052494E545F4A4F85
:10043000423A310A004361703A50524F4752455395
:10044000533A300A004361703A4155544F52455077
:100450004F52545F54454D503A310A004361703A4F
:10046000454550524F4D3A310A004649524D574189
:1004700052455F4E414D453A4D61726C696E205454
:100480004F524E41444F20284769746875622920B5
:10049000534F555243455F434F44455F55524C3A85
:1004A00068747470733A2F2F6769746875622E636D
:1004B0006F6D2F4D61726C696E4669726D776172F6
:1004C000652F4D61726C696E2050524F544F434FEF
:1004D0004C5F56455253494F4E3A312E30204D41D4
:1004E0004348494E455F545950453A5445564F206C
:1004F000546F726E61646F20455854525544455292
:100500005F434F554E543A3120555549443A63653F
:100510006465326132662D343161322D34373438BE
:100520002D396231322D63353563363266333637D5
:1005300066660A002F2F20004D31343520533C6968
:100540006E6465783E206F7574206F662072616EF0
:1005500067652028302D31290A0053657474696E4F
:10056000672054726176656C20416363656C6572C7
:100570006174696F6E3A200053657474696E672008
:100580005265747261637420416363656C65726166
:1005900074696F6E3A200053657474696E672050F9
:1005A00072696E7420416363656C65726174696F12
:1005B0006E3A200053657474696E67205072696EDC
:1005C0007420616E642054726176656C20416363AF
:1005D000656C65726174696F6E3A2000205A002064
:1005E0005900580020204D61783A2000205A002000
:1005F0005900580020204D696E3A20004F6E2000AF
:100600004F666600536F667420656E6473746F7016
:10061000733A2000000136372603FF3C3D380EFFB9
:100620002E303E12FFFF0C080907FFFF1A1C18FFAF
:10063000FF08440A0743FFFFFFFFFFFF20643A0063
:1006400020693A0020703A0020643A0020693A009C
:1006500020703A0043290A0061626C656420286DAD
:10066000696E2074656D702000436F6C642065783E
:100670007472756465732061726520004F666673DD
:10068000657473206170706C696564004572723ABC
:1006900020546F6F206661722100546F6F20666175
:1006A000722066726F6D207265666572656E636535
:1006B00020706F696E740A004E6F2063617365204D
:1006C0006C696768740A00416374697665204578CF
:1006D0007472756465723A2000556E6B6E6F776E3A
:1006E00020636F6D6D616E643A2022004B494C4C63
:1006F00045442E200053544F505045442E20005066
:1007000072696E7465722073746F707065642064B2
:10071000756520746F206572726F72732E20466942
:100720007820746865206572726F7220616E642033
:10073000757365204D39393920746F207265737473
:100740006172742E202854656D70657261747572C3
:10075000652069732072657365742E20536574205B
:100760006974206166746572207265737461727455
:10077000696E67290A004E6F204C696E65204E75C0
:100780006D626572207769746820636865636B7356
:10079000756D2C204C617374204C696E653A200095
:1007A0004E6F20436865636B73756D20776974685D
:1007B000206C696E65206E756D6265722C204C61CF
:1007C0007374204C696E653A2000636865636B73CF
:1007D000756D206D69736D617463682C204C617355
:1007E00074204C696E653A20004C696E65204E7528
:1007F0006D626572206973206E6F74204C61737432
:10080000204C696E65204E756D6265722B312C200F
:100810004C617374204C696E653A20004D31313063
:10082000004D3331004D383420582059205A20458E
:100830000053442072656164206572726F720A0011
:10084000446F6E65207072696E74696E67206669A8
:100850006C650A0020496E76616C69642065787465
:100860007275646572200000000000000000000046
:100870000000000000A043000096430000C843466B
:10088000696C652064656C657465643A0044656CE8
:100890006574696F6E206661696C65642C204669B9
:1008A0006C653A20006F70656E206661696C6564E6
:1008B0002C2046696C653A2000656E71756575651A
:1008C000696E6720220000000000000000000000A8
:1008D0000000000070420000704200000041000073
:1008E00000005761726E696E673A20486F6D696EDD
:1008F000672042756D702044697669736F72203C81
:1009000020310A000202040000A0400000A04000C4
:100910000000400000A043000096430000C843FFD1
:10092000FFFF7C3C3E5E2B3D3F2F5B5D3B2C2A2234
:100930005C0024F4D43050C38E20C2A24017828BB6
:100940007011127A910D816CD90AA861E108C7581B
:100950006607615143061E4B5D05C145A7041A4158
:100960001104093D9803713931034036DB026533C8
:100970009102D4305402802E1D02632CEE01752AA0
:10098000C501B028A001102781018F2564012B2407
:100990004B01E0223401AC211F018D200D01801F8D
:1009A000FC00841EED00971DDF00B81CD200E61B82
:1009B000C600201BBC00641AB200B219A8000A19B4
:1009C000A0006A189900D117910040178B00B51646
:1009D000840031167E00B31579003A157300C714F0
:1009E0006F0058146A00EE13660088136300251325
:1009F0005E00C7125B006C12570015125400C11143
:100A0000510070114F0021114B00D61049008D107C
:100A100047004610440002104200C00F4000800F03
:100A20003E00420F3C00060F3B00CB0E3800930EF9
:100A300037005C0E3500270E3400F30D3200C10D77
:100A40003100900D3000600D2E00320D2D00050D8F
:100A50002C00D90C2B00AE0C2900850C29005C0C55
:100A60002700350C27000E0C2600E80B2400C40BD1
:100A70002400A00B23007D0B23005A0B2100390B0F
:100A80002100180B2000F80A1F00D90A1E00BB0A1B
:100A90001E009D0A1D00800A1D00630A1C00470AF3
:100AA0001B002C0A1B00110A1A00F7091A00DD09A5
:100AB0001900C4091900AB091900920917007B0934
:100AC0001800630917004C091600360916002009A2
:100AD00016000A091500F5081500E0081400CC08F6
:100AE0001400B8081400A4081400900813007D082E
:100AF00012006B0813005808120046081200340850
:100B00001100230811001208110001081100F0075C
:100B10001000E0071000D0071000C0071000B00759
:100B20000F00A107100091070E0083070F00740744
:100B30000F0065070E0057070E0049070E003B0720
:100B40000D002E070E0020070D0013070D000607ED
:100B50000D00F9060C00ED060D00E0060C00D406B1
:100B60000C00C8060C00BC060C00B0060C00A40665
:100B70000B0099060C008D060B0082060B00770611
:100B80000B006C060B0061060A0057060B004C06B2
:100B90000A0042060A0038060A002E060A00240649
:100BA0000A001A060A001006090007060A00FD05D9
:100BB0000900F4050900EB050900E2050900D90563
:100BC0000900D0050900C7050900BE050900B505E3
:100BD0000800AD050800A50509009C05080094055E
:100BE00008008C050800840508007C0508007405D1
:100BF00008006C050700650508005D05070056053F
:100C000008004E05070047050700400508003805A5
:100C10000700310507002A050700230507001C050A
:100C20000600160507000F05070008050600020567
:100C30000700FB040600F5040700EE040600E804C4
:100C40000600E2040700DB040600D5040600CF041A
:100C50000600C9040600C3040600BD040600B7046C
:100C60000600B1040500AC040600A6040600A004BA
:100C700005009B04060095040500900406008A0404
:100C8000050085040500800406007A04050075044B
:100C90000500700405006B0405006604050061048E
:100CA00005005C04050057040500520405004D04CE
:100CB000050048040500430405003E0404003A040E
:100CC000050035040500300404002C040500270449
:100CD0000400230405001E0404001A040400160482
:100CE0000500110404000D040400090405000404B7
:100CF000040000040400FC030400F8030400F403EF
:100D00000400F0030400EC030400E8030400E4031F
:100D10000400E0030400DC030400D8030400D4034F
:100D20000400D0030400CC030400C8030300C5037F
:100D3000030024F404D9201BC40C5C0E9804C409DD
:100D40005F0265077101F405F900FB04B300480474
:100D50008700C10369005803550003034500BE0224
:100D60003A008402310053022A00290225000402BD
:100D70002000E4011C00C8011900AF011700980110
:100D80001400840113007101100061011000510171
:100D90000E0043010D0036010B002B010B0020015A
:100DA0000B00150109000C01090003010800FB00FC
:100DB0000800F3000800EB000700E4000600DE0076
:100DC0000600D8000600D2000600CC000500C700CF
:100DD0000500C2000500BD000400B9000400B50014
:100DE0000400B1000400AD000400A9000400A50047
:100DF0000300A20003009F0004009B000300980072
:100E000003009500020093000300900003008D0092
:100E100002008B00030088000200860002008400AC
:100E20000300810002007F0002007D0002007B00C1
:100E300002007900020077000100760002007400D1
:100E4000020072000100710002006F0002006D00DC
:100E500001006C0002006A000100690002006700E6
:100E600001006600010065000100640002006200EC
:100E7000010061000100600001005F0002005D00F0
:100E800001005C0001005B0001005A0001005900F4
:100E900001005800010057000100560001005500F4
:100EA00001005400010053000000530001005200F3
:100EB000010051000100500001004F0001004E00F0
:100EC00000004E0001004D0001004C0001004B00ED
:100ED00000004B0001004A000100490001004800E9
:100EE00000004800010047000100460000004600E5
:100EF00001004500000045000100440001004300DE
:100F000000004300010042000000420001004100D7
:100F1000000041000100400001003F0000003F00D0
:100F200001003E0000003E0001003D0000003D00C9
:100F300001003C0000003C0000003C0001003B00C0
:100F400000003B0001003A0000003A0001003900B7
:100F500000003900010038000000380000003800AF
:100F600001003700000037000100360000003600A5
:100F7000000036000100350000003500000035009B
:100F80000100340000003400000034000100330090
:100F90000000330000003300010032000000320086
:100FA000000032000100310000003100000031007B
:100FB00001003000000030000000300001002F0070
:100FC00000002F0000002F0000002F0001002E0065
:100FD00000002E0000002E0001002D0000002D005A
:100FE00000002D0000002D0001002C0000002C004E
:100FF00000002C0000002C0001002B0000002B0042
:1010000000002B0000002B0001002A0000002A0035
:1010100000002A0000002A00010029000000290029
:10102000000029000000290000002900010028001C
:101030000000280000002800000028000000280010
:101040000100270000002700000027000000270003
:1010500000002700010026000000260000002600F6
:1010600000002600000026000100250000002500E9
:1010700000002500000025000000250000002500DC
:1010800001002400000024000000240000002400CF
:1010900000002400010023000000230000002300C2
:1010A00000002300000023000000230000002300B4
:1010B00001002200000022000000220000002200A7
:1010C0000000220000002200010021000000210099
:1010D000000021000000210000002100000021008C
:1010E000000021000100200000002000000020007E
:1010F0000000200000002000000020000000200070
:101100000000200001001F0000001F0000001F0061
:1011100000001F0000001F0000001F0000001F0053
:1011200001001E0000001E0000001E0000001E0046
:1011300000004D383420582059205A204500466977
:101140006C2E204469612E0046696C2E2044696132
:101150002E004F6666004F6E20004520696E206DA0
:101160006D3300436F6E74726F6C0043616E6E6F0F
:101170007420656E746572207375626469723A20BA
:1011800000022E2E004D61696E0056547261762069
:101190006D696E005654726176206D696E0056540A
:1011A000726176206D696E00566D696E00566D69CC
:1011B0006E00566D696E00566D6178204500566D63
:1011C0006178204500566D6178204500566D617844
:1011D000205A00566D6178205A00566D6178205A69
:1011E00000566D6178205900566D6178205900567F
:1011F0006D6178205900566D6178205800566D61F8
:1012000078205800566D61782058004D6F74696FD2
:101210006E00416D6178204500416D617820450088
:10122000416D6178205A00416D6178205A00416D0E
:101230006178205900416D6178205900416D6178D5
:10124000205800416D6178205800412D74726176FC
:10125000656C00412D74726176656C00412D72657C
:10126000747261637400412D7265747261637400FD
:10127000416363656C00416363656C004D6F746925
:101280006F6E0056652D6A65726B0056652D6A6536
:10129000726B0056652D6A65726B00567A2D6A6511
:1012A000726B00567A2D6A65726B0056792D6A65ED
:1012B000726B0056792D6A65726B0056792D6A65DE
:1012C000726B0056782D6A65726B0056782D6A65D0
:1012D000726B0056782D6A65726B004D6F74696F82
:1012E0006E004573746570732F6D6D004573746582
:1012F00070732F6D6D005A73746570732F6D6D0070
:101300005A73746570732F6D6D00597374657073C3
:101310002F6D6D005973746570732F6D6D00587368
:10132000746570732F6D6D005873746570732F6DD5
:101330006D004D6F74696F6E0053746570732F6D1F
:101340006D004A65726B00416363656C6572617420
:10135000696F6E0056656C6F6369747900436F6ED8
:1013600074726F6C00436172642072656D6F766594
:1013700064004361726420696E7365727465640011
:1013800000060900FE070192032120FFFF08FF0766
:10139000FF000000060000010707060200808080B1
:1013A00080800080030202060105A0A00507070651
:1013B00000005050F850F850500507070600002074
:1013C00078A07028F020050707060000C0C810208C
:1013D0004098180507070600006090A040A8906894
:1013E000020303060104C040800307070601002032
:1013F00040808080402003070706010080402020B5
:1014000020408005050506000120A870A8200505DC
:10141000050600012020F820200203030602FFC079
:101420004080050101060003F8020202060200C026
:10143000C0050505060001081020408005070706C5
:1014400000007088888888887003070706010040BC
:10145000C040404040E00507070600007088087063
:101460008080F8050707060000F81020100808F033
:1014700005070706000010305090F8101005070708
:10148000060000F880F008088870050707060000CD
:10149000708080F0888870050707060000F8081043
:1014A00020202020050707060000708888708888A3
:1014B0007005070706000070888878080870020524
:1014C00005060200C0C000C0C00206060602FFC03A
:1014D000C000C04080040707060000102040804084
:1014E0002010050303060002F800F80407070601B0
:1014F000008040201020408005070706000070880B
:10150000081020002005070706000070880868A85A
:10151000A870050707060000708888F88888880585
:101520000707060000F08888F08888F0050707069E
:10153000000070888080808870050707060000F032
:101540008888888888F0050707060000F88080F002
:101550008080F8050707060000F88080F080808012
:10156000050707060000708880B88888700507079F
:10157000060000888888F888888801070706020026
:10158000808080808080800507070600003810106A
:10159000101090600507070600008890A0C0A0907A
:1015A00088050707060000808080808080F8050796
:1015B0000706000088D8A8888888880507070600DD
:1015C000008888C8A89888880507070600007088E2
:1015D0008888888870050707060000F08888F080F2
:1015E000808005070706000070888888A890680535
:1015F0000707060000F08888F0A090880507070616
:101600000000788080700808F0050707060000F8E1
:1016100020202020202005070706000088888888D1
:101620008888700507070600008888888888502009
:101630000507070600008888888888A850050707DE
:10164000060000888850205088880507070600009B
:1016500088888850202020050707060000F8081019
:10166000204080F8030707060100E080808080802A
:10167000E005050506000180402010080307070665
:101680000100E02020202020E005030306000420C4
:101690005088050101060000F802020206020580DA
:1016A00040050505060000700878887805070706DC
:1016B00000008080B0C88888F0050505060000702D
:1016C00080808870050707060000080868988888E9
:1016D000780505050600007088F880700507070684
:1016E00000003048E0404040400506060600FF701C
:1016F00088887808700507070600008080B0C888D1
:1017000088880107070602008000808080808003AF
:1017100008080601FF200020202020A04004070721
:10172000060000808090A0C0A0900307070601007B
:10173000C04040404040E0050505060000D0A8A894
:10174000A8A8050505060000B0C888888805050515
:1017500006000070888888700506060600FFF0887D
:1017600088F080800506060600FF788888780808DB
:10177000050505060000B0C8808080050505060047
:101780000070807008F00407070600004040E04049
:1017900040403005050506000088888898680505E2
:1017A0000506000088888850200505050600008889
:1017B00088A8A85005050506000088502050880517
:1017C00006060600FF88888878087005050506006B
:1017D00000F8102040F80307070601002040408071
:1017E00040402001070706020080808080808080C2
:1017F00003070706010080404020404080050202A8
:1018000006000268900000000600000000000600CC
:1018100000000000060000000000060000000000BC
:1018200006000000000006000000000006000000A6
:101830000000060000000000060000000000060096
:10184000000000000600000000000600000000008C
:101850000600000000000600000000000600000076
:101860000000060000000000060000000000060066
:10187000000000000600000000000600000000005C
:101880000600000000000600000000000600000046
:101890000000060000000000060000000000060036
:1018A000000000000600000000000600000000002C
:1018B0000600000000000600000000000600000016
:1018C0000000060000000000060000000000060006
:1018D00000010707060200800080808080800507E5
:1018E000070600002070A8A0A870200507070600C2
:1018F00000304040E04050A8050505060000887013
:10190000507088050707060000885020F820F8204E
:10191000010707060200808080008080800508089B
:10192000060000304820505020906003010106015D
:1019300007A0050707060000F888B8B8B888F805BA
:101940000707060001700878887800F80505050685
:1019500000012850A05028050303060001F80808DC
:101960000202020602064080050707060000F8880A
:10197000A88898A8F8050101060006F804040406E2
:101980000003609090600507070600002020F82003
:101990002000F804050506000360902040F00305D0
:1019A00005060003E020E020E002020206020640F5
:1019B000800508080600FF8888888898E8808005E8
:1019C000070706000078989878181818020202068F
:1019D0000202C0C00202020602FF408003050506A3
:1019E000000340C04040E0050707060001708888FA
:1019F000887000F8050505060001A0502850A005D4
:101A000007070600008890A858B8080805070706C9
:101A100000008890B848982038050808060000C0E3
:101A200040C048D8380808050707060000200020F5
:101A3000408088700508080600004020007088F883
:101A400088880508080600001020007088F888883B
:101A50000508080600002050007088F888880508EE
:101A6000080600006890007088F888880508080655
:101A700000005000708888F8888805080806000073
:101A80002050207088F88888050707060000386015
:101A9000A0B8E0A0B80508080600FF70888080881C
:101AA000702060050808060000402000F880F080E3
:101AB000F8050808060000081000F880F080F80516
:101AC0000808060000205000F880F080F80507079D
:101AD0000600005000F880F080F8030808060100B6
:101AE000804000E0404040E003080806010020403C
:101AF00000E0404040E003080806010040A000E08C
:101B0000404040E0030707060100A000E0404040DD
:101B1000E0050707060000704848E84848700508D7
:101B20000806000068900088C8A89888050808067C
:101B3000000040207088888888700508080600002A
:101B400010207088888888700508080600002050DA
:101B5000007088888870050808060000689000708A
:101B600088888870050808060000500070888888FA
:101B70008870050505060001885020508805080872
:101B80000600FF1070A8A8A8A87040050808060065
:101B900000402088888888887005080806000010A2
:101BA0002088888888887005080806000020500072
:101BB0008888888870050808060000500088888892
:101BC0008888700508080600001020885020202012
:101BD000200509090600FFC040704848704040E0F9
:101BE0000408080601FF609090A09090E08005082E
:101BF000080600004020007008788878050808066C
:101C00000000102000700878887805080806000099
:101C10002050007008788878050808060000689051
:101C200000700878887805070706000050007008E3
:101C30007888780508080600002050207008788809
:101C400078050606060000D02878A0A850050606EC
:101C50000600FF70808870206005080806000040BC
:101C600020007088F8807005080806000010200029
:101C70007088F88070050808060000205000708801
:101C8000F8807005070706000050007088F8807023
:101C900003080806010080400040C04040E00308FF
:101CA0000806010020400040C04040E0030808064C
:101CB000010040A00040C04040E0030707060100CB
:101CC000A00040C04040E0050707060000A040A07B
:101CD00010788870050808060000689000B0C88871
:101CE00088880508080600004020007088888870F1
:101CF0000508080600001020007088888870050814
:101D000008060000205000708888887005080806C2
:101D1000000068900070888888700507070600003A
:101D2000500070888888700505050600012000F8BD
:101D300000200507070600FF1070A8A8A87040053E
:101D40000808060000402000888888986805080870
:101D5000060000102000888888986805080806009A
:101D60000020500088888898680507070600005002
:101D70000088888898680509090600FF10200088F7
:101D80008888F808700407070601FFC040605060AB
:101D900040E00508080600FF500088888878087031
:101DA00053442063617264206F6B0A006F70656E2C
:101DB000526F6F74206661696C65640A00766F6C9F
:101DC000756D652E696E6974206661696C65640A5B
:101DD000004572726F723A00534420696E69742034
:101DE0006661696C0A006175746F25692E6700650C
:101DF00063686F3A004D3234004D32332025730052
:101E000007FFFFFFFF00010101016265640A002C6A
:101E10002073797374656D2073746F7070656421BD
:101E2000204865617465725F49443A2000486561E5
:101E300074696E67206661696C65640048656174E9
:101E4000696E67206661696C6564004865617469E4
:101E50006E67206661696C65640048656174696ECF
:101E600067206661696C65640070012C0190012730
:101E700001B0012201C0011D01F00118011002137F
:101E80000130020E016002090190020401C002FF4C
:101E9000000003FA004003F5008003F000D003EBDC
:101EA000002004E6007004E100E004DC004005D7F7
:101EB00000C005D2004006CD00D006C8008007C390
:101EC000003008BE00F008B900C009B400B00AAF85
:101ED00000B00BAA00D00CA500000EA000500F9B74
:101EE00000C01096005012910000148C00C015879D
:101EF00000B0178200B0197D00D01B7800001E735F
:101F00000040206E0090226900F024640040275FAA
:101F10000090295A00E02B5500102E500020304B25
:101F20000010324600E033410090353C0010373756
:101F30000070383200A0392D00B03A2800A03B23B1
:101F400000603C1E00103D1900903D1400103E0F33
:101F500000703E0A00C03E0500003F0000403FFB0D
:101F6000FF803FF6FFC03FF1FF544845524D414CC2
:101F70002052554E4157415900546865726D616C4D
:101F80002052756E61776179004572723A204D4931
:101F90004E54454D5020424544004572723A204D02
:101FA000494E54454D50004D494E54454D502074B6
:101FB0007269676765726564004572723A204D41C7
:101FC0005854454D5020424544004572723A204DC8
:101FD000415854454D50004D415854454D50207482
:101FE00072696767657265640045787472756465C7
:101FF00072004D6F7665205A004D6F76652059004E
:102000004D6F766520580050726570617265004DA5
:102010003530320A4D35303000526573746F726559
:10202000206661696C73616665004C6F6164207342
:10203000657474696E677300496E697469616C696F
:102040007A6520454550524F4D0053746F7265209C
:1020500073657474696E67730046696C616D656E53
:1020600074004D6F74696F6E0054656D70657261B8
:1020700074757265004D61696E00507265686561C6
:10208000742041425320636F6E660050726568652C
:10209000617420504C4120636F6E66005049442D9E
:1020A00044005049442D44005049442D49005049B2
:1020B000442D49005049442D50005049442D5000B2
:1020C0002008204661637400200820466163740084
:1020D0002008204D6178002008204D6178002008FC
:1020E000204D6178002008204D696E002008204DA9
:1020F000696E002008204D696E004F6666004F6EC5
:1021000020004175746F74656D700046616E2073B8
:10211000706565640046616E207370656564004695
:10212000616E207370656564004265640042656499
:1021300000426564004E6F7A7A6C65004E6F7A7A61
:102140006C65004E6F7A7A6C6500436F6E74726FC7
:102150006C0053746F72652073657474696E677375
:10216000004265640042656400426564004E6F7A17
:102170007A6C65004E6F7A7A6C65004E6F7A7A6C75
:10218000650046616E2073706565640046616E206F
:1021900073706565640046616E20737065656400E8
:1021A00054656D7065726174757265000006090092
:1021B000FE000000000001090008FE0000050808FC
:1021C00006000040F0C888889878100508080600C6
:1021D00000C0F88888888888F80505050600012071
:1021E00030F830200508080600002070F820202074
:1021F00020E00509090600FF2070A8A8B8888870AB
:10220000200509090600FFE080C0B0A82830282872
:102210000509090600FFF8A88888888888A8F805B5
:102220000A0A0600FE205050505088A8A888700363
:10223000030306000340A04000000000000000006F
:10224000000000000000000000000000000000008E
:10225000000000000000000000000000000000007E
:102260000000000000000000000001FFFF0000006F
:1022700000000000000000000001FFFFFFFF000061
:102280000000000000000000001FFFFFFFFFF00043
:10229000000000000000000000FFE000FFFFFE0063
:1022A000000000000000000003F00000003FFFC03D
:1022B0000000000000000000078000000000FFE0B8
:1022C00000000000000000000E07FC0000000FF0FE
:1022D00000000000000000000CFF0000000001F8FA
:1022E00000000000000000000FE000000000007887
:1022F00000000000000000000FC0000000000038D7
:10230000000000000000000007C000000001E070B5
:10231000000000000000000001E0000000007CF070
:1023200000000000000000000078000000007FF0C6
:102330000000000000000000010FC0000001FFE0ED
:1023400000000000000000000101FF80003FE3E00A
:102350000000000000000000018007FFFFFC0FC02C
:10236000000000000000000001C0000000003F80ED
:10237000000000000000000000E000000001FF007D
:10238000000000000000000000380000002FFC00EA
:102390000000000000000000001E000000FFF80028
:1023A0000000000000000000000380000FFE780025
:1023B0000000000000000000000040003E0070002F
:1023C000000000000000000000000000000070009D
:1023D0000000000000000000000000000000F0000D
:1023E0000000000000000000000000000001E0000C
:1023F0000000000000000000000600000007C00010
:10240000000000000000000000030000001F0000AA
:1024100000000000000000000001C00000FC0000FF
:102420000000000000000000000078000FEC000039
:10243000000000000000000000000400100E00007A
:10244000000000000000000000000000001E00006E
:10245000000000000000000000000000007C000000
:1024600000000000000000000000000000F000007C
:1024700000000000000000000000000007E0000075
:102480000000000000000000000000003F600000AD
:1024900000000000000000000000000000600000DC
:1024A00000000000000000000000080000E0000044
:1024B00000000000000400000000070003C000004E
:1024C0000000000001FE0000000003800F800000FB
:1024D0000000000001FC0000000000C07F000000C0
:1024E0000000000000F8000000000000C300000829
:1024F0000003000F807C0000000000000701FDFFCA
:10250000EFE7833F867C3F80000000000E07FFFF5F
:10251000F7EF8FFF1FFC7FC0000000003C1FFFFD96
:10252000FBFFDFFF3FFCFFE000000000761FFE7BAB
:10253000FBFFDFFF7FFDFFE000000000061E067BC3
:10254000FBFFFFFF7FFFE0E0000000001C1C067B9C
:10255000F3F7B81E707B80E000000001F8181E7CC5
:1025600003E7BEFE7FFB81C000000000F01FFE7E7F
:1025700001E7BFFFFFFFFFC000000003F80FFCFFF3
:1025800087E7BFFFFFFFFFC000000003F007F9FF70
:1025900087E79FFFBF7EFF8000000001F003F1E0AE
:1025A0000027FF1000403F0000000000C0000000B6
:1025B0000000E0000000000000000000000000003B
:1025C000000000000000000000000000000000000B
:1025D00000000000000000000000000000000000FB
:1025E00000000000000000000000000000000000EB
:1025F00000000000000000000000000000000000DB
:1026000000000000000000000000000000000000CA
:1026100000000000000000000000000000000000BA
:1026200000000000000000000000000000000000AA
:10263000000000000000000025753A2530327500CA
:10264000253032753A2530327500257564202530E5
:1026500032753A25303275005A0059005800092069
:10266000000000000000000000000000007FFFE00C
:102670000000000000000000000000007000E0000A
:10268000000000000000000000000061F860000091
:102690000000000000000000000041F820000000E1
:1026A00000000000000000000040F02000000000DA
:1026B000000000000000000040602000000000005A
:1026C000000000000000005801A07F800000000012
:1026D0000000004104005C63A0FFC0000000000097
:1026E00000002082005EF7A0FFC000000000000094
:1026F000002082005EF7A0FFC00000000000000084
:102700004104005C63A07F800000000000000082A4
:1027100008005801A07F80000000000000010410A4
:1027200000406020FFC00000000000000104100015
:1027300040F020FFC00000000000000082080041BF
:10274000F820FFC00000000000000041040061F814
:10275000603F00000000000000000000007000E08A
:102760001E0000000000000001FFFF807FFFE00C62
:102770000000000000000001FFFF800000000000DA
:10278000000000000000000000007FFFE0000000EB
:102790000000000000000000007000E000000000E9
:1027A0000000000000000000630C6000000000005A
:1027B00000000000000000470E20000000000000A4
:1027C0000000000000004F0F20000000000000008B
:1027D00000000000005F0FA00000000000000000EB
:1027E000000000005E07A07F8000000000000000E5
:1027F000410400406020FFC00000000000000020F5
:10280000820040F020FFC000000000000000208295
:102810000040F020FFC00000000000000041040064
:102820004060207F80000000000000008208005E01
:1028300007A07F80000000000000010410005F0F6F
:10284000A0FFC0000000000000010410004F0F2096
:10285000FFC000000000000000820800470E20FFBB
:10286000C000000000000000410400630C603F0055
:10287000000000000000000000007000E01E0000EA
:10288000000000000001FFFF807FFFE00C0000005F
:102890000000000001FFFF80000000202F00204208
:1028A000403A0020403A0048656174696E672064D0
:1028B0006F6E652E0020573A00452569202573006C
:1028C0005445564F20546F726E61646F207265617B
:1028D00064792E0042656420646F6E652E00205777
:1028E0003A004265642048656174696E672E002075
:1028F0005A3A0020593A0020436F756E7420583AB6
:102900000020453A00205A3A0020593A00583A002F
:102910004B64200023646566696E6520204445464B
:1029200041554C545F004B69200023646566696E15
:1029300065202044454641554C545F004B702000B3
:1029400023646566696E65202044454641554C54B4
:102950005F00504944204175746F74756E65206640
:10296000696E6973686564212050757420746865A8
:10297000206C617374204B702C204B6920616E6455
:10298000204B6420636F6E7374616E747320667283
:102990006F6D2062656C6F7720696E746F20436F76
:1029A0006E66696775726174696F6E2E680A005091
:1029B0004944204175746F74756E65206661696C59
:1029C0006564212074696D656F75740A005049440F
:1029D000204175746F74756E65206661696C6564FD
:1029E000212054656D706572617475726520746F15
:1029F0006F20686967680A00204B643A2000204B0A
:102A0000693A2000204B703A20000A20436C617321
:102A100073696320504944200A002054753A20000D
:102A2000204B753A2000206D61783A2000206D69B6
:102A30006E3A200020643A200020626961733A20D7
:102A4000005072656865617420504C4120456E6489
:102A5000005072656865617420504C412042656485
:102A6000005072656865617420504C410050726579
:102A700070617265005072656865617420414253EF
:102A800020456E6400507265686561742041425350
:102A9000204265640050726568656174204142534C
:102AA0000050726570617265004D343238005072AA
:102AB000656865617420504C4100436F6F6C646FB2
:102AC000776E00507265686561742041425300441E
:102AD000697361626C6520737465707065727300F0
:102AE0004D38340053657420686F6D65206F6666DD
:102AF0007365747300486F6D65205A004732382043
:102B00005A00486F6D6520590047323820590048F7
:102B10006F6D652058004732382058004175746F3A
:102B200020686F6D6500473238004D6F7665206113
:102B3000786973004D61696E004D6F7665205800AD
:102B40004D6F76652059004D6F7665205A004578A7
:102B5000747275646572004D6F766520302E316D2C
:102B60006D004D6F766520316D6D004D6F7665207F
:102B700031306D6D004D6F76652061786973004569
:102B800078747275646572004D6F7665205A004DD9
:102B90006F76652059004D6F766520580057726931
:102BA00074696E6720746F2066696C653A20006FE7
:102BB00070656E206661696C65642C2046696C6581
:102BC0003A20006F70656E206661696C65642C2028
:102BD00046696C653A200046696C652073656C65D2
:102BE000637465640A002053697A653A2000466977
:102BF0006C65206F70656E65643A20006F70656E5D
:102C0000206661696C65642C2046696C653A200019
:102C10002066696C653A20004E6F77200022207094
:102C20006F73002220706172656E743A22005355F2
:102C300042524F5554494E452043414C4C207461FB
:102C4000726765743A22004B494C4C45442E200073
:102C5000747279696E6720746F2063616C6C207385
:102C600075622D67636F64652066696C6573207794
:102C700069746820746F6F206D616E79206C657661
:102C8000656C732E204D4158206C6576656C20690B
:102C9000733A0043616E6E6F74206F70656E2073BF
:102CA000756264697220004732380A424544204CFC
:102CB0004556454C20446F6E65004731205A3130EF
:102CC0002046353030300A473120583230205932D2
:102CD000300A4731205A300A424544204C45564577
:102CE0004C20446F6E65004731205A313020463504
:102CF0003030300A47312058323830205932300ACB
:102D00004731205A300A424544204C4556454C2014
:102D1000446F6E65004731205A31302046353030DF
:102D2000300A4731205832383020593238300A477B
:102D300031205A300A424544204C4556454C2044E7
:102D40006F6E65004731205A3130204635303030C3
:102D50000A47312058323020593238300A47312062
:102D60005A300A424544204C4556454C20446F6E2B
:102D70006500526561722052696768740046726F1F
:102D80006E742052696768740046726F6E74204CCE
:102D90006566740052656172204C65667400486F08
:102DA0006D65004D61696E005072696E74207061CE
:102DB0007573656400005072696E742061626F7291
:102DC000746564005072696E742066726F6D205372
:102DD000440053746F70207072696E740052657392
:102DE000756D65207072696E74004E6F20534420BB
:102DF00063617264005061757365207072696E74EE
:102E000000436F6E74726F6C005072657061726512
:102E10000054756E6500437573746F6D20436F6D5C
:102E20006D616E647300496E666F207363726565D1
:102E30006E00426162797374657070696E672058C4
:102E400000426162797374657070696E6720590021
:102E5000426162797374657070696E67205A0042CE
:102E600061627973746570205A004261627973748B
:102E70006570205900426162797374657020580052
:102E8000466C6F7700466C6F7700466C6F77004634
:102E9000616E2073706565640046616E20737065B5
:102EA00065640046616E2073706565640042656408
:102EB0000042656400426564004E6F7A7A6C65007A
:102EC0004E6F7A7A6C65004E6F7A7A6C650053703B
:102ED00065656400537065656400537065656400E2
:102EE0004D61696E0020746F6F206C6F6E67206596
:102EF0007874727573696F6E2070726576656E7422
:102F000065640A0020636F6C642065787472757361
:102F1000696F6E2070726576656E7465640A00294B
:102F20000A002062797465733B206372632000534A
:102F3000657474696E67732053746F7265642028BA
:102F400000202863616C63756C6174656429210AD3
:102F50000020213D2000454550524F4D2043524313
:102F6000206D69736D61746368202D202873746F00
:102F7000726564292000290A002062797465733B18
:102F80002063726320002073746F72656420736520
:102F90007474696E677320726574726965766564AE
:102FA000202800204D61726C696E3D563430290A2C
:102FB0000028454550524F4D3D00454550524F4D1C
:102FC0002076657273696F6E206D69736D617463CD
:102FD00068200048617264636F64656420446566BC
:102FE00061756C742053657474696E6773204C6FDF
:102FF000616465640A00D0070000D0070000780013
:1030000000001027000000007A4300007A4300000F
:10301000F04100005C4254A3A04254A3A04222A568
:10302000C7430000C84320440020490020204D33FE
:10303000303420500020440020490020204D3330FF
:10304000312050005049442073657474696E677371
:103050003A0A0020460020420020480020204D313E
:1030600034352053004D6174657269616C20686568
:103070006174757020706172616D65746572733A08
:103080000A00205A0020590020204D3230362058A6
:1030900000486F6D65206F66667365743A0A00209C
:1030A0004500205A0020590020580020420020549A
:1030B0000020204D323035205300416476616E632C
:1030C00065643A20533C6D696E5F66656564726144
:1030D00074653E20543C6D696E5F74726176656CF8
:1030E0005F66656564726174653E20423C6D696E21
:1030F0005F7365676D656E745F74696D655F6D7331
:103100003E20583C6D61785F78795F6A65726B3EEE
:10311000205A3C6D61785F7A5F6A65726B3E20452C
:103120003C6D61785F655F6A65726B3E0A00205492
:103130000020520020204D32303420500041636383
:10314000656C65726174696F6E2028756E69747341
:103150002F7332293A20503C7072696E745F61633C
:1031600063656C3E20523C726574726163745F618A
:103170006363656C3E20543C74726176656C5F617C
:103180006363656C3E0A00204500205A0020590008
:1031900020204D3230312058004D6178696D756DB9
:1031A00020416363656C65726174696F6E20287578
:1031B0006E6974732F7332293A0A00204500205A31
:1031C0000020590020204D3230332058004D6178C6
:1031D000696D756D2066656564726174657320281C
:1031E000756E6974732F73293A0A00204500205ABE
:1031F0000020590020204D3932205800537465704A
:10320000732070657220756E69743A0A0020204D33
:103210003230302044300A0020204D3230302044FB
:10322000002044697361626C65640A0046696C61E0
:103230006D656E742073657474696E67733A0020EF
:10324000204D3134392043203B20556E6974732062
:10325000696E2043656C736975730A0020204732DC
:1032600031202020203B20556E69747320696E2028
:103270006D6D0A007A5F6D696E3A2000795F6D6945
:103280006E3A2000785F6D696E3A20005265706F6B
:103290007274696E6720656E6473746F70207374E6
:1032A000617475730A00FFFFFF9FFFFC00000000C0
:1032B000000000007FFFFFBFFFF8000000000000DB
:1032C00000007FFFFFBFFFF80000000000000000CB
:1032D0003FFFFF7FFFF000000000000000003FFF05
:1032E000FE7FFFF00000000000000000003E00FD37
:1032F000F7E000000000000000000FBF7EFBF7E0D9
:1033000000000000000000000FDF7EFBEFC00000A7
:1033100000000000000007DFBF77EF800000000022
:103320000000000007EFDF67DF8000000000000002
:10333000000003EFDFAFDF000000000000000C0022
:1033400003F7EFDFBF03FFF9FFBE01E07F8001FB62
:10335000EFDF7E03FFF9FF9F03E1FFE001FBF7FFD3
:103360007E03FFF9FF9F03E3FFF000FDF7FEFC0380
:10337000FFF1FF9F03C7FFF0007DFBFEF8001F0178
:10338000E00F07C7C1F8007EFDFDF8001F01E00F48
:1033900087CF80F8003E7DF9F0001F01E00F878F96
:1033A000807C003F7EFDF0001F01FF878F8F807CB7
:1033B000001FBEFDE0001F01FF87CF8F807C000F44
:1033C000BF7EE0001F01FF87CF0F807C000FDF3E34
:1033D000C0001F01FF83CF0F807C0007DFBF00000C
:1033E0001F01E003FF0F80780007EFDF00001F01DF
:1033F000E003FE0F80F80003F79F00001F01E001CB
:10340000FE07C1F80003F7BF00001F01FF81FE07A0
:10341000FFF00001FB7E00001F01FFC1FC03FFE085
:103420000000FB7C00001F01FFC0FC01FFC000008A
:10343000FCFC00001F01FFC0F8007F8000007CF84A
:103440000000000000000000000000007FF8000005
:10345000000000000000000000003FF0000000003D
:1034600000000000000000003FF00000000000002D
:103470000000000000001FE000000000000000004D
:10348000000000000FC0000000000000000000006D
:1034900000000FC00000000000000000000000005D
:1034A0000780000000000000000000000000030092
:1034B000000000000000000000002020506C616E41
:1034C0006E657242756666657242797465733A20FC
:1034D000002046726565204D656D6F72793A200057
:1034E000436F6D70696C65643A20536570203138A4
:1034F00020323031380A00207C20417574686F72A8
:103500003A20285068616E746F6D2C205445564FD8
:1035100020544F524E41444F290A00323031372D4A
:1035200030382D32382031323A303000204C61733F
:103530007420557064617465643A2000544F524E93
:1035400041444F0A004D61726C696E0020536F66F2
:1035500074776172652052657365740A0020576143
:10356000746368646F672052657365740A00204253
:10357000726F776E206F75742052657365740A00E0
:103580002045787465726E616C2052657365740AAB
:1035900000506F77657255700A0073746172740A17
:1035A000006572726F722077726974696E67207439
:1035B0006F2066696C650A00456E6473746F707382
:1035C00020256320256320256320256300205A3AA7
:1035D0000020593A0020583A00656E6473746F7089
:1035E00073206869743A2000446F6E6520736176B9
:1035F000696E672066696C652E0A004D3239004598
:1036000072726F722077726974696E6720746F20AE
:10361000454550524F4D210A00000021002400274B
:10362000002A002D003000330001010000040107D2
:10363000010A0100002200250028002B002E003185
:1036400000340002010000050108010B0100002008
:10365000002300260029002C002F0032000001006A
:10366000000301060109010505050507050808080D
:1036700008020202020A0A08080404040401010103
:10368000010101010103030303030303030407070B
:10369000070C0C0C0C0C0C0C0C02020202060606A9
:1036A00006060606060B0B0B0B0B0B0B0B01021091
:1036B000202008081020401020408002010201084C
:1036C00004020101020408102040808040201008FC
:1036D0000402018004020180402010080402010855
:1036E00004020101020408102040800102040810B5
:1036F00020408000000A0B02090C0D0E080703048D
:1037000001000000000000000000000000000000B8
:103710000000000000000000000000000000001297
:103720001110000000000000000000000000000078
:10373000000000000000000000526573656E643AEE
:1037400020006F6B0020746F6F206C6F6E672065B8
:103750007874727573696F6E2070726576656E74B9
:1037600065640A0020636F6C6420657874727573F9
:10377000696F6E2070726576656E7465640A0062AA
:103780007573793A2070617573656420666F722075
:10379000696E7075740A00627573793A207061758C
:1037A00073656420666F7220757365720A006275B6
:1037B00073793A2070726F63657373696E670A007C
:1037C0004B494C4C45442E20004B494C4C206361E6
:1037D00075736564206279204B494C4C2062757486
:1037E000746F6E2F70696E0A004B494C4C45442E25
:1037F00020004B494C4C20636175736564206279ED
:1038000020746F6F206D75636820696E61637469E1
:1038100076652074696D65202D2063757272656E02
:103820007420636F6D6D616E643A2000506C656149
:103830007365207265736574005052494E54455249
:103840002048414C544544005072696E74657220A2
:1038500068616C7465642E206B696C6C2829206328
:10386000616C6C6564210A0071D615D511241FBEE8
:10387000CFEFD1E2DEBFCDBF00E00CBF13E0A0E090
:10388000B2E0EAEBF4ED01E00BBF02C007900D924D
:10389000A43BB107D9F723E1A4EBB3E001C01D922B
:1038A000AA3FB207E1F71CE1C5E3DCE100E006C096
:1038B00021970109802FFE010E94B9E9C433D10785
:1038C00080E00807A9F70E945DD80C944CEA0C949C
:1038D00000002F923F924F925F926F927F928F9251
:1038E0009F92AF92BF92CF92DF92EF92FF920F938F
:1038F0001F93CF93DF93CDB7DEB7CB55D1090FB66A
:10390000F894DEBF0FBECDBF0091221320E6029FC8
:10391000800111240E551E4E80913D1180FF1AC06A
:10392000EFEEFDE184917F013FEFE31AF30A81118D
:1039300002C0780104C00E949337F701F3CFD7018A
:103940008D917D01882319F00E949337F8CF8AE08A
:103950000E94933781E090E09093D6138093D51323
:103960001092D3031092D2038FE38093E20310925C
:10397000E1031092E00384E0EEECF3E0DF011D923E
:103980008A95E9F7F80180810F5F1F4F8032D1F3EC
:103990008E34C9F4818190ED980F9A3020F08D32E9
:1039A00011F08B3281F4DF0112969D012F5F3F4FA2
:1039B0008C9180538A3010F4D901F7CFFD01119614
:1039C00080818032D9F3F093DD13E093DC137F0123
:1039D000BFEFEB1AFB0A10816AE270E0C7010E9498
:1039E00014EA009731F0FC01319780818032E1F3D5
:1039F00011821D3431F1143521F1173411F1EFEE3C
:103A0000FDE184918F010F5F1F4F882321F00E94F9
:103A10009337F801F6CF6091DC137091DD1389EDD7
:103A200096E00E94D44D82E20E9493378AE00E9481
:103A300093371092D6131092D5130E94CCD40C94C5
:103A40004333C701FC01208101962032D9F3205372
:103A50002A30A8F61093E20380E090E06AE0319605
:103A6000DF0111972C91022E000C330B20533109EA
:103A7000689FA001699F500D1124C901840F951FF3
:103A8000208120532A3058F39093E1038093E00380
:103A9000DF0131962C912032D9F31D34D1F48E31CF
:103AA000910591F03CF48731910571F08C319105CD
:103AB00081F40AC08537910564F08737910524F0B9
:103AC000803AE3E09E0729F4B093D303A093D20396
:103AD0007CC01092D3031092D2030091DC13EE2429
:103AE000E394F12CFD0131962C91222309F46DC051
:103AF0002132A1F41D3491F48032910579F4F093D0
:103B0000D303E093D20363E270E0CF010E9414EA92
:103B1000009709F4CAC7DC011C9257C021542A310E
:103B2000A0F5AF01FA0130814F5F5F4F3032D1F322
:103B300040ED430F4A3040F043ED430F423020F058
:103B40003B3211F00C94C132AF01622F70E0DB0107
:103B500033E0B595A7953A95E1F7A253BC4F27708E
:103B6000670102C0CC0CDD1C2A95E2F796013C915E
:103B7000232B2C934115510511F0401B01C040E04F
:103B8000DB01AC54BC4F4C930AC02091D20330915E
:103B9000D303232B21F4B093D303A093D20320812A
:103BA00021542A3110F4DF019DCFDF01AD014F5FB9
:103BB0005F4F2C9120532A3010F4DA01F7CFFD012A
:103BC000119620812032D9F3EECF8091E2038D341B
:103BD00009F46BC7843511F40C948532873409F0ED
:103BE0000ECF2090E0033090E10324E02216310450
:103BF00009F4EFC44CF437FC1CCF80914D0242E035
:103C00002416310404F517C05AE52516310409F4C9
:103C1000B5C634F49CE12916310409F41EC509CF58
:103C2000ABE52A16310409F4ACC6BCE52B16310409
:103C300009F4ABC6FECE882309F4FBCE0E941637EA
:103C40000E94DED3F6CE882309F4F3CE0E94163705
:103C500082E50E940A37882309F430C10E94A83601
:103C60004B015C0120E030E0A9010E9488E288233A
:103C700009F450C12091711130917211409173116A
:103C80005091741128A739A74AA75BA78091751195
:103C900090917611A0917711B09178118CA79DA782
:103CA000AEA7BFA7209166043091670440916804D5
:103CB000509169042CAB3DAB4EAB5FAB80916A0475
:103CC00090916B04A0916C04B0916D0488AB99AB9A
:103CD000AAABBBAB68A579A58AA59BA50E9488E283
:103CE00081110DC028A939A94AA95BA96CA57DA598
:103CF0008EA59FA50E9488E2882309F40BC111E0DC
:103D000092E02916310409F010E020E030E0A9012A
:103D1000C501B4010E9488E2881F8827881F1817F0
:103D200059F020E030E040E85FEB24962CAF3DAF47
:103D30004EAF5FAF24970AC080E090E0A0E8BFE3F9
:103D400024968CAF9DAFAEAFBFAF249728A539A501
:103D50004AA55BA56CA97DA98EA99FA90E94B1E681
:103D60006CAF7DAF8EAF9FAF2CA53DA54EA55FA5D7
:103D700068A979A98AA99BA90E94B1E66B017C0177
:103D80002CAD3DAD4EAD5FADCA01B9010E94EDE273
:103D90002B013C01A7019601C701B6010E94EDE28B
:103DA0009B01AC01C301B2010E94B2E60E941DE971
:103DB00068AF79AF8AAF9BAF20E030E040E05FE3CF
:103DC0000E94EDE22B013C01A5019401C501B40163
:103DD0000E94EDE24B015C01A3019201C301B2011B
:103DE0000E94EDE29B01AC01C501B4010E94B1E665
:103DF0000E941DE924962CAD3DAD4EAD5FAD2497DC
:103E00000E94EDE24B015C01C701B601905828AD5C
:103E100039AD4AAD5BAD0E948EE7A50194010E94C9
:103E2000EDE26B017C012CA93DA94EA95FA968A513
:103E300079A58AA59BA50E94B2E620E030E040E08B
:103E40005FE30E94EDE29B01AC01C701B6010E9455
:103E5000B2E628A539A54AA55BA50E94B1E66B018B
:103E60007C0128A939A94AA95BA96CA57DA58EA5C5
:103E70009FA50E94B2E620E030E040E05FE30E94B0
:103E8000EDE22B013C0128AD39AD4AAD5BAD6CAD27
:103E90007DAD8EAD9FAD0E948EE7A50194010E947D
:103EA000EDE29B01AC01C301B2010E94B2E62CA578
:103EB0003DA54EA55FA50E94B1E614C089E40E940D
:103EC0000A37882329F00E94A8366B017C0103C0C1
:103ED000C12CD12C76018AE40E940A378823E9F0AC
:103EE0000E94A8366CAB7DAB8EAB9FAB20E030E080
:103EF000A901C701B6010E9488E281111BC020E020
:103F000030E0A9016CA97DA98EA99FA90E9488E231
:103F1000811110C0E1EDFDE149C320E030E0A901CD
:103F2000C701B6010E9488E28823A1F31CAA1DAA3A
:103F30001EAA1FAAA7019601505828A739A74AA769
:103F40005BA78CA99DA9AEA9BFA9B0588CA79DA7B6
:103F5000AEA7BFA7CA01B9010E94EDE24B015C0107
:103F60002CA53DA54EA55FA5CA01B9010E94EDE2B1
:103F70009B01AC01C501B4010E94B2E60E941DE99B
:103F800060966CAF7DAF8EAF9FAF6097209171113F
:103F900030917211409173115091741128AB39AB6B
:103FA0004AAB5BABA701960168A979A98AA99BA92D
:103FB0000E94B2E624966CAF7DAF8EAF9FAF249780
:103FC0008091751190917611A0917711B09178112F
:103FD00088AF99AFAAAFBBAF2CA93DA94EA95FA9E5
:103FE000BC01CD010E94B2E664966CAF7DAF8EAF8E
:103FF0009FAF6497209166043091670440916804F4
:104000005091690428962CAF3DAF4EAF5FAF289713
:1040100024962CAD3DAD4EAD5FAD249728966CAD8A
:104020007DAD8EAD9FAD28970E94B1E66B017C01FE
:1040300080916A0490916B04A0916C04B0916D041E
:104040002C968CAF9DAFAEAFBFAF2C9764962CADC6
:104050003DAD4EAD5FAD6497BC01CD010E94B1E6B0
:104060004B015C012091791130917A1140917B11C3
:1040700050917C1168962CAF3DAF4EAF5FAF689703
:1040800060916E0470916F0480917004909171043E
:104090000E94B1E66CAF7DAF8EAF9FAFA7019601D6
:1040A00068A579A58AA59BA50E94EDE22B013C019C
:1040B000A50194016CA57DA58EA59FA50E94EDE2AA
:1040C0009B01AC01C301B2010E94B2E62B013C018D
:1040D000A501940168A579A58AA59BA50E94EDE29A
:1040E0004B015C01A70196016CA57DA58EA59FA53E
:1040F0000E94EDE29B01AC01C501B4010E94B1E652
:10410000A30192010E9425E76B017C0120E030E0D1
:10411000A9010E9488E287FF0AC02BED3FE049EC2D
:1041200050E4C701B6010E94B2E66B017C0132E0A7
:104130002316310451F42BED3FE049EC50E4C70164
:10414000B6010E94B1E66B017C0120E030E0A901DC
:10415000C701B6010E9488E2811124C028962CADC7
:104160003DAD4EAD5FAD289768A979A98AA99BA9F5
:104170000E9488E2811116C02C962CAD3DAD4EAD4B
:104180005FAD2C9768AD79AD8AAD9BAD0E9488E29A
:10419000811108C00BEDC02E0FE0D02E09ECE02EEF
:1041A00000E4F02EA701960160966CAD7DAD8EAD5A
:1041B0009FAD60970E94EDE29B01AC010E94EDE291
:1041C0004B015C012CAD3DAD4EAD5FADCA01B901F7
:1041D0000E94EDE29B01AC01C501B4010E94B2E670
:1041E0000E941DE94B015C012FE632E143E85AE3EE
:1041F0000E9488E287FDD4C1C501B4010E9427E86E
:104200000E94FBE779AF68AF672B21F481E090E073
:1042100099AF88AF40907D1150907E1160907F11D2
:1042200070908011A8ADB9ADBD0180E090E00E9412
:104230008CE24B015C019B01AC01C701B6010E94FD
:104240008EE768AB79AB8AAB9BABA50194016CADF3
:104250007DAD8EAD9FAD0E948EE760966CAF7DAF59
:104260008EAF9FAF6097A30192016091720470912D
:10427000730480917404909175040E94B1E6A501C5
:1042800094010E948EE76C966CAF7DAF8EAF9FAFAE
:104290006C9728A939A94AA95BA9CA01B9010E944A
:1042A000EDE220E030E040E05FE30E94EDE29B01C0
:1042B000AC0160E070E080E89FE30E94B1E66CAF83
:1042C0007DAF8EAF9FAF68962CAD3DAD4EAD5FAD6F
:1042D000689729873A874B875C874D865E866F860D
:1042E000788A60917C0270917D02072E000C880B09
:1042F000990B0E948EE220918702309188024091B2
:10430000890250918A020E94EDE22AE037ED43E2F1
:104310005CE30E94EDE228966CAF7DAF8EAF9FAF5D
:1043200028970E9400D09B01AC0128533F4F4F4F6C
:104330005F4F2C962CAF3DAF4EAF5FAF2C9748A48C
:1043400059A46AA47BA422242394312C19E1D12EF0
:1043500048AD59AD4215530509F40EC10E94F174E0
:104360000E9400D0DC01CB012C962CAD3DAD4EADB2
:104370005FAD2C97821B930BA40BB50BB7FD10C040
:104380000E9400D09B01AC0128533F4F4F4F5F4F1D
:104390002C962CAF3DAF4EAF5FAF2C970E9414D13F
:1043A000DA94DD20E9F12CA53DA54EA55FA56CAD05
:1043B0007DAD8EAD9FAD0E94EDE24B015C0192019F
:1043C000A30168A979A98AA99BA90E94EDE2A50188
:1043D00094010E94B2E67B018C019201A3016CADB5
:1043E0007DAD8EAD9FAD0E94EDE24B015C012CA531
:1043F0003DA54EA55FA568A979A98AA99BA90E9498
:10440000EDE29B01AC01C501B4010E94B1E62B01B4
:104410003C01C701D8018CA79DA7AEA7BFA74DC07F
:10442000B10180E090E00E948CE228A939A94AA954
:104430005BA90E94EDE24B015C010E948BE76B01DE
:104440007C01C501B4010E9413E94B015C01A70185
:10445000960168A579A58AA59BA50E94EDE22B018E
:104460003C012CA93DA94EA95FA9C501B4010E9438
:10447000EDE2A30192010E94B2E62B013C01A501ED
:10448000940168A579A58AA59BA50E94EDE24B0140
:104490005C012CA93DA94EA95FA9C701B6010E94E4
:1044A000EDE29B01AC01C501B4010E94B1E66CA72D
:1044B0007DA78EA79FA7A9E1DA2E9201A3012496DA
:1044C0006CAD7DAD8EAD9FAD24970E94B2E6698341
:1044D0007A838B839C832CA53DA54EA55FA564960E
:1044E0006CAD7DAD8EAD9FAD64970E94B2E66D83DD
:1044F0007E838F83988760962CAD3DAD4EAD5FADCA
:10450000609769857A858B859C850E94B2E669876C
:104510007A878B879C876C962CAD3DAD4EAD5FAD99
:104520006C976D857E858F8598890E94B2E66D8730
:104530007E878F87988B80916A02882321F0CE0135
:1045400001960E94FA42C090D4132896ECACFDACC0
:104550000EAD1FAD28979E01235F3F4FAE01475F11
:104560005F4FBE016B5F7F4FCE0101960E940AA68E
:104570003FEF231A330AECCEC090D4132896ECAC4C
:10458000FDAC0EAD1FAD289722E734E04EE654E0B7
:104590006AE674E086E694E00E940AA60E94EA3485
:1045A0000E94883746CA0E949337F80184918F0190
:1045B0000F5F1F4F8111F7CFE1E4F2E084918F018B
:1045C0000F5F1F4F882309F434CA0E949337F80104
:1045D000F5CF80E50E940A37882329F00E946836CB
:1045E0006B017C0103C0C12CD12C760183E50E94B4
:1045F0000A37882361F00E94A83620E030E04AE7BD
:1046000054E40E94EDE20E94FBE76B017C010E94F2
:10461000284680910A02811105C060E087E592E09A
:104620000E94F9650E9488378091DE139091DF1314
:10463000A091E013B091E113C80ED91EEA1EFB1E33
:104640000E9400D0DC01CB018C199D09AE09BF0985
:10465000B7FFEFC90E9414D1F3CF0E942846809182
:10466000870290918802A0918902B0918A0280937A
:10467000DC039093DD03A093DE03B093DF0380910E
:104680007C0290917D029093DB038093DA0384E6B1
:1046900090E090937D0280937C020E94883781E0B5
:1046A0008093611188E50E94DB36F82E89E50E942F
:1046B000DB36082F8AE50E94DB36E82EF11005C0B4
:1046C000011105C011E0182705C0011102C010E05A
:1046D00001C0182F80E1E1E7F1E1A6E6B4E0019026
:1046E0000D928A95E1F7111105C0F11003C0002366
:1046F00009F418C120E030E040EA50E4609156042B
:104700007091570480915804909159040E94B2E628
:1047100060936E0470936F0480937004909371049F
:104720002091791130917A1140917B1150917C1137
:104730000E94D8E818167CF419821A821B821C8207
:104740009E012F5F3F4F4EE654E065E771E181E740
:1047500091E10E94FA3311110EC0F11003C0011152
:10476000DBC0E0C0011107C080E090E00E948C43F4
:104770001123A9F3D1C010927511109276111092E5
:10478000771110927811109271111092721110928B
:104790007311109274110E940136EFE1F9E0C49098
:1047A000CCA6E3E1F9E085909590A590B490E7E17F
:1047B000F9E04590559065907490A5019401C3016E
:1047C000B2010E9488E287FF05C0A5019401C301E0
:1047D000B20104C0A3019201C501B4010E948EE799
:1047E00068A779A78AA79BA7E2EDCE2EE8E0DE2E88
:1047F000F6016591759185919491F6ED2F2EF8E073
:104800003F2EF10125913591459154910E9488E206
:1048100087FF02C0F60101C0F10185919591A59134
:10482000B491D82EC92E3A2E2B2E28A539A54AA5EB
:104830005BA5CA01B9010E94EDE220E030E040E84A
:104840005FE30E94B2E60E941DE92D2D3C2D432D11
:10485000522D0E94EDE26CA37DA38EA39FA3E0E204
:10486000F9E0D49020E030E040EC5FE3C301B20116
:104870000E94EDE22B013C016D2DDD0C770B880BC6
:10488000990B0E948EE29B01AC01C301B2010E9410
:10489000EDE269837A838B839C8320E030E040ECF7
:1048A0005FE3C501B4010E94EDE24B015C01DCA4B1
:1048B0006D2DDD0C770B880B990B0E948EE29B010E
:1048C000AC01C501B4010E94EDE268A379A38AA3FB
:1048D0009BA39E012C5D3F4F49E751E1BE016F5FF5
:1048E0007F4FCE0180960E94FA331092A111109250
:1048F0007511109276111092771110927811109212
:104900007111109272111092731110927411111191
:104910002BCFF11029CF23CF81E090E00E948C4370
:10492000111102C0EE2021F082E090E00E948C4341
:104930000E94013680915811809361118091DC03AF
:104940009091DD03A091DE03B091DF038093870295
:1049500090938802A0938902B0938A028091DA032F
:104960009091DB0390937D0280937C020E948837B4
:1049700083E0809309020E942F875BC81092D903BD
:1049800058C881E08093D90354C885E40E940A374F
:10499000B82E811102C00E94284650E9852E52E0AF
:1049A000952E61E7C62E61E1D62E7AE5E72E74E0FA
:1049B000F72E00E010E0A12CD4018D914D010E9452
:1049C0000A37882339F1F601408051806280738074
:1049D0000E94A836D6016D937D938D939C93139777
:1049E0000330C1F0A30192010E94B1E69B01AC012A
:1049F000F70160817181828193810E94B2E6D701C3
:104A00006D937D938D939C931397C8010E94F4340A
:104A1000AA24A3940F5F1F4FB4E0CB0ED11CE4E097
:104A2000EE0EF11C0430110539F6AA2019F00E948F
:104A3000013637C0BB20A9F1C0907D11D0907E1106
:104A4000E0907F11F09080112091DB093091DC091A
:104A50004091DD095091DE09C701B6010E94EDE2E7
:104A60000E94E3E86093770C7093780C8093790C44
:104A700090937A0CC701B6010E94F6E72FB7F8941D
:104A8000609358097093590980935A0990935B0970
:104A90002FBF1092670C1092680C1092690C109244
:104AA0006A0C0E942F870C94191D8091E00390914D
:104AB000E1038137910509F435C50CF0D3C08B347F
:104AC000910509F443C40CF068C08831910509F4DC
:104AD0008CC2E4F58231910509F4F7C5F4F497FF2F
:104AE00002C00C94191D823091050CF49CC14197B1
:104AF00011F00C94191D60E086E992E00E94F965BE
:104B00005F988A989FB7F894809108018E7F809370
:104B100008019FBF12980C94191D8531910509F465
:104B200049C23CF4449711F00C94191DEEEAF2E0EE
:104B300001C28631910509F441C2479711F00C94E6
:104B4000191DE091D203F091D30342C28C3191053B
:104B500009F4B2C264F48A31910509F451C20CF02F
:104B60006EC21092AB0C0E94DC980C94191D8F3110
:104B7000910509F4F5C244F44E9711F00C94191DF7
:104B80000E94D23B0C94191D8032910509F49EC2FB
:104B90008A9709F49BC30C94191D8836910509F472
:104BA000E1C30CF040C08235910509F485C514F5C8
:104BB0008D34910509F4D2C30CF4CCC38135910531
:104BC00011F00C94191D0E94B6700E9428460E9494
:104BD0009BD010923C1310923B1368EE73E080E080
:104BE00090E00E94F06460E08DE793E00E94F96538
:104BF0000C94191D8435910509F467C50CF460C542
:104C00008535910509F48FC58C35910511F00C940B
:104C1000191D90E9C92E92E0D92E2FECE22E29E041
:104C2000F22E10E09BC58C36910509F473C43CF458
:104C30008A36910509F40FC50CF4BFC42BC58E3616
:104C4000910509F4E6C30CF4FEC48F36910509F40E
:104C5000F3C38037910511F00C94191D8AE693E097
:104C60000E94ACD0833D910509F4D7C00CF063C01D
:104C70008139910509F4CFC64CF58637910509F4C1
:104C800082C6A4F48337910509F4CAC00CF4E6C5C2
:104C90008537910511F00C94191D60E08091D203C5
:104CA0009091D3030E9416660C94191D88379105C4
:104CB00009F4A4C60CF49EC68937910509F4A5C66B
:104CC0008C38910509F45BC40C94191D893C91053D
:104CD00009F470C774F48E3B910509F4B8C4883C9C
:104CE000910509F413C78B39910511F00C94191D26
:104CF00081C48C3C910509F496C764F48B3C910502
:104D000011F00C94191D70E9E72E72E0F72E03E9FB
:104D100019E079C78D3C910509F4F1C78E3C9105E6
:104D200011F00C94191D60E9E62E62E0F62E00E009
:104D300010E00C94E72E8336F1E09F0709F469C078
:104D400074F58C3231E0930711F40C94E32F8CF45A
:104D50008D3D910511F40C949F2F823E910511F425
:104D60000C94B92F8C3D910511F00C94191D0C94E5
:104D7000922F8E3251E0950711F40C94123114F4F5
:104D80000C9409308F32B1E09B0711F40C9463311D
:104D90008033914011F40C949C300C94191D853F84
:104DA000F1E09F0711F40C944932F4F48A3931E0B0
:104DB000930709F4B3C34CF48039914011F00C947B
:104DC000191D0E9428460C94191D8C3AA1E09A07DF
:104DD00011F40C946731843F914011F00C94191D2B
:104DE0000E94A2B70C94191D873FE1E09E0711F4C1
:104DF0000C94513214F40C944D32803A23E0920713
:104E000009F4A1C1873E934011F40C9473320C94C1
:104E1000191DE1EDFDE10C946032EFEEFDE1ECC710
:104E2000EAE6F4E024C5A090D203B090D30380E575
:104E30000E940A37882359F00E9468366B017C0172
:104E400011E0672B682B692B31F410E004C010E0EF
:104E5000C12CD12C760183E50E940A378823F1F01A
:104E60000E94A83620E030E04AE754E40E94EDE2D8
:104E70000E94FBE76B017C01111112C0672B682BAC
:104E8000692B71F4A114B10459F0D5018C918823D8
:104E900039F061E0C5010E94166607C0112391F345
:104EA00060E083E892E00E94F96583E090E09093EF
:104EB000D6138093D51381E08093F4090E9428468D
:104EC0000E948837C114D104E104F104E1F080911B
:104ED000DE139091DF13A091E013B091E113C80E9F
:104EE000D91EEA1EFB1E0E9400D0DC01CB018C19EA
:104EF0009D09AE09BF09B7FF19C08091F40981115E
:104F00000C94D23213C08091F409882319F00E94C6
:104F100014D1F9CF8091AB0C60E0882319F084E7BD
:104F200092E002C080E692E00E94F9651092F409D6
:104F30000C94191D84918F010F5F1F4F882321F05E
:104F40000E949337F801F6CF1092310F1092300F74
:104F50008CED9CE00E94A83E8BE1ECEDFCE0DE01D4
:104F6000159601900D928A95E1F78091DA0C909157
:104F7000DB0C9C838B838EEA92E09A83898340E0EA
:104F800050E0BE016F5F7F4F84E493E00E94139A6C
:104F9000CE0101960E946E45EFE9F2E084918F0107
:104FA0000F5F1F4F882311F40C94191D0E94933733
:104FB000F801F4CF0E94406D0C94191D1092AB0CB7
:104FC0001092AC0C0C94191D803209F410823196A9
:104FD00080818111F9CF40E061E08091D20390910E
:104FE000D3030E942F9C0C94191D8091AC0C882334
:104FF00019F081E08093AB0C0E949C980C94191DD1
:105000008091AC0C882311F40C94191D83E50E9447
:105010000A37882311F40C94191D0E947836AB01CD
:10502000BC014093270F5093280F6093290F709372
:105030002A0F86E79EE00E94BECA0C94191D80913B
:10504000AC0C811103C0E1EDF2E02AC0EFEBF2E01D
:1050500084918F010F5F1F4F882321F00E949337A7
:10506000F801F6CF6091270F7091280F8091290FDA
:1050700090912A0F4AE00E949A378FE20E9493375C
:105080006091230F7091240F8091250F9091260F2E
:105090004AE00E949A378AE00E9493370C94191DC7
:1050A00084918F010F5F1F4F882311F40C94191DF9
:1050B0000E949337F801F4CF40E060E08091D20382
:1050C0009091D3030E942F9C0C94191D8091AB0CDE
:1050D00081110E942846E090D203F090D30380E52E
:1050E0000E94DB36182F882319F00E949936182F5A
:1050F0008091AC0C882311F40C94191D412F61E0B0
:10510000C7010E942F9C83E50E940A37882381F003
:105110000E947836AB01BC014093270F5093280FB3
:105120006093290F70932A0F86E79EE00E94BECA03
:105130008091AC0C882319F081E08093AB0C1111A5
:105140000C94191D59CF8091D2039091D30321E083
:105150002093AA0C40E060E00E942F9C0C94191D43
:105160000E94886E7B018C0120E831E541E050E02F
:105170000E9476E6C9016DE671E00E9476E94B0176
:105180005C01C801B70120E13EE040E050E00E9430
:1051900076E6CA01B90128E130E040E050E00E9423
:1051A00076E6762E672EC62ED72E4CE3242E312C93
:1051B000412C512CC801B701A20191010E9476E651
:1051C000F62EE72ECA01B901A20191010E9476E6EE
:1051D000CB018E010F5F1F4F8114910499F0EF9264
:1051E000FF927F936F936F927F92BF92AF929F9245
:1051F0008F928AE093E09F938F931F930F930E9467
:1052000022E213C0A114B104B1F0EF92FF927F9398
:105210006F936F927F92BF92AF928AEF92E09F93CB
:105220008F931F930F930E9422E20FB6F894DEBF74
:105230000FBECDBF30C0CD2879F0EF92FF927F93A3
:105240006F936F927F928EEE92E09F938F931F9356
:105250000F930E9422E2E9CF892B69F0EF92FF922F
:105260007F936F9386EE92E09F938F931F930F939C
:105270000E9422E2DACFEF92FF9282EE92E09F93B9
:105280008F931F930F930E9422E20F900F900F9025
:105290000F900F900F9060E0C8010E941666EFEE2D
:1052A000FDE184917F019FEFE91AF90A882321F03B
:1052B0000E949337F701F5CFB8018EE193E00E9489
:1052C000D44D8AE00E9493370C94191D83E50E9407
:1052D0000A37882311F40C94191D0E948836E82E91
:1052E00080E50E940A37882339F00E9478368B01C6
:1052F00077FF04C00C94191D0DE010E0202FE4E1AD
:10530000F6E08CE396E03491231303C0E1EDFDE178
:1053100009C031968E179F07B1F70C94D6320E94C0
:105320009337F80184918F010F5F1F4F8111F7CFE1
:10533000EBE2F3E084918F010F5F1F4F882311F49C
:105340000C94191D0E949337F801F4CF0E949C9889
:105350000C94191D0E94DC980C94191D0E94706A0F
:105360000C94191D88E690E00E94053881110C9478
:10537000191D80913D1183FF02C00C94191D83E516
:105380000E940A37882309F440C00E94A8360E9470
:10539000F6E770933A136093391380E00E946A70C5
:1053A0000E94A83620E030E04AEA52E40E9488E2F7
:1053B00018163CF00E94706A60E081E493E00E945D
:1053C000F9650E94A8362091C00F3091C10F40911D
:1053D000C20F5091C30F0E94D8E81816B4F486E0AB
:1053E00093E09F938F938091D40390E001969F93D5
:1053F0008F938AE393E09F938F931F920E94896A11
:105400000FB6F894DEBF0FBECDBF0E947F4E0C9446
:10541000191D8EE40E940A37882311F40C94191D7B
:105420000E9478366093D0137093D1138093D21377
:105430009093D3130C94191D83E50E940A37882397
:1054400019F00E94883601C080E080933D11EFEE94
:10545000FDE184918F010F5F1F4F811103C0E3E6CF
:10546000F3E004C00E949337F801F3CF84918F01D9
:105470000F5F1F4F882321F00E949337F801F6CF6A
:1054800080913D11811103C0EFE5F3E034C035E5B3
:10549000C32E33E0D32EE12CF12C20E080913D117E
:1054A00090E00E2C02C0959587950A94E2F780FF54
:1054B00017C0BB24B394B20E222319F08CE20E94D1
:1054C0009337F60185919491FC0184918F010F5FD0
:1054D0001F4F882321F00E949337F801F6CF2B2D20
:1054E000BFEFEB1AFB0AE2E0CE0ED11CF5E0EF169F
:1054F000F104A1F60AC084918F010F5F1F4F88232A
:1055000021F00E949337F801F6CF8AE00E9493378A
:105510000C94191D109279020C94191D0E94D686C4
:105520000C94191D83E50E940A37811103C0EFEE28
:10553000FDE10DC00E94883680938B028D3310F4FC
:105540000C94191D8CE380938B020C94191D84918B
:105550008F010F5F1F4F882321F00E949337F801BE
:10556000F6CF40918B0250E060E070E083E793E07B
:105570000E94814D8AE00E9493370C94191D8091FE
:105580003D1183FF02C00C94191D83E50E940A3768
:10559000882311F40C94191D0E94A8360E94F6E786
:1055A0006739710514F066E970E070933813609301
:1055B00037130E941E700C94191D89E690E00E941A
:1055C0000538811111C0EAE7F3E084918F010F5F84
:1055D0001F4F882321F00E949337F801F6CF0E94D5
:1055E000EE878AE00E9493371092D6131092D5135B
:1055F0000C94433383E50E940A37882311F40C94FA
:10560000191D0E9488368093DB138D3318F08CE3CC
:105610008093DB130E9400D06B017C012091DB138F
:1056200030E0A8EEB3E00E94A2E6C60ED71EE81E48
:10563000F91EC092D713D092D813E092D913F092EA
:10564000DA130C94191D0E949C8E0C94191D0E9453
:10565000F78C0C94191D83E50E940A37882339F0D2
:105660000E9478368B016F3F710519F010F00FEF33
:1056700010E080E50E940A37811106C010933C13A8
:1056800000933B130C94191D0E94883681110C94D1
:10569000191DF4CF80E50E940A37811106C01092CF
:1056A0003C1310923B130C94191D0E947836672B03
:1056B00011F00C94191DF3CF1092D8030C94191DFE
:1056C00081E08093D8030C94191D83E50E940A376A
:1056D0008823A1F00E94A83620E030E04AE754E495
:1056E0000E94EDE20E94FBE760938C0270938D02B2
:1056F00080938E0290938F020C94191D88E50E946E
:10570000DB3681116BC789E50E94DB36811166C7E4
:105710008AE50E94DB36811161C785E40E94DB3691
:1057200081115CC782C783E50E94DB36882311F4B0
:105730000C94191D0E94A83620E030E04AE754E49A
:105740000E94EDE20E94FBE76093E2137093E31383
:105750008093E4139093E5130C94191DD6018D9159
:105760006D010E94DB36882309F46DC0133009F007
:1057700063C00E94A8364B015C0120E030E040EAA3
:1057800051E40E9488E287FF4EC0A5019401609118
:10579000DB097091DC098091DD099091DE090E949E
:1057A0008EE72B013C019B01AC016091CB0970910C
:1057B000CC098091CD099091CE090E94EDE26093D1
:1057C000CB097093CC098093CD099093CE09A301A6
:1057D000920160919F097091A0098091A109909117
:1057E000A2090E94EDE260939F097093A009809343
:1057F000A1099093A20960914A1170914B11809177
:105800004C1190914D110E948CE2A30192010E94D3
:10581000EDE20E94FBE760934A1170934B11809375
:105820004C1190934D118092DB099092DC09A0926B
:10583000DD09B092DE0907C00E94A836F701608337
:105840007183828393831F5FF4E0EF0EF11C1430A9
:1058500009F084CF0E94AF4E0C94191D0E94284677
:105860000E942F870C94191D0E949337F801849190
:105870008F010F5F1F4F8111F7CFECE5F4E003C0FC
:105880000E949337F80184918F010F5F1F4F8111A0
:10589000F7CFE5E4F4E003C00E949337F801849168
:1058A0008F010F5F1F4F8111F7CFE5E3F4E003C0D5
:1058B0000E949337F80184918F010F5F1F4F811170
:1058C000F7CFE4E2F4E003C00E949337F80184913B
:1058D0008F010F5F1F4F8111F7CFE3E1F4E003C0A9
:1058E0000E949337F80184918F010F5F1F4F811140
:1058F000F7CFE4E0F4E003C00E949337F80184910D
:105900008F010F5F1F4F8111F7CFEFEEF3E003C060
:105910000E949337F80184918F010F5F1F4F81110F
:10592000F7CFE9EDF3E003C00E949337F8018491CB
:105930008F010F5F1F4F8111F7CFE4ECF3E003C03D
:105940000E949337F80184918F010F5F1F4F8111DF
:10595000F7CFE7EAF3E003C00E949337F8018491A0
:105960008F010F5F1F4F8111F7CFEFE8F3E08491B4
:105970008F010F5F1F4F882311F40C94191D0E9493
:105980009337F801F4CF85E40E94DB36882381F059
:105990000E949936882361F0EFEEFDE184918F013A
:1059A0000F5F1F4F882321F00E949337F801F6CF35
:1059B00081E40E94DB36882381F00E949936882397
:1059C00061F0E4E3F5E084918F010F5F1F4F8823BE
:1059D00021F00E949337F801F6CF0091D203109185
:1059E000D303D8018D918D01882309F48ECD0E94B7
:1059F0009337F7CF0E947EBE0C94191D81E08093EF
:105A00006111809358110C94191D1092611110921C
:105A100058110C94191D83E50E940A37882319F048
:105A20000E94783602C060E070E08B0111270230DE
:105A30001105DCF0E1EDFDE184918F010F5F1F4F57
:105A4000811103C0E8E3F5E004C00E949337F80138
:105A5000F3CF84918F010F5F1F4F882311F40C94B3
:105A6000191D0E949337F801F4CF88E40E940A3789
:105A70008823A9F00E9478366A3A71053CF06E31AD
:105A8000B1E07B072CF06DE171E002C06AEA70E0E2
:105A9000F801EE0FFF1FE755F04F7183608386E436
:105AA0000E940A378823A9F00E947836F801EE0F89
:105AB000FF1FE355F04F718360836F3F710519F04D
:105AC00014F06FEF70E077FF02C060E070E0718368
:105AD000608382E40E940A37882311F40C94191D14
